2020-04-09 18:05:08,127 DEBUG - connect 129.211.27.73:20200,as socket <socket.socket fd=7, family=AddressFamily.AF_INET, type=SocketKind.SOCK_STREAM, proto=6, laddr=('192.168.0.208', 47452), raddr=('129.211.27.73', 20200)>
2020-04-09 18:05:08,367 DEBUG - ChannelRecvThread:start thread-->
2020-04-09 18:05:08,367 DEBUG - ChannelRecvThread channelHandler.ssock.recv begin.
2020-04-09 18:05:08,367 DEBUG - channelSendThread:start thread-->
2020-04-09 18:05:08,367 DEBUG - channelHandler:start thread-->
2020-04-09 18:05:08,368 DEBUG - request rpc_data : b'{"jsonrpc": "2.0", "method": "getBlockNumber", "params": [1], "id": 30}'
2020-04-09 18:05:08,369 DEBUG - channelSendThread send pack len:71,type:0x12,result:0x0,seq:b'97A6670A7A4911EA95FFFA163E301C29',data:b'{"jsonrpc": "2.0", "method": "getBlockNumber", "params": [1], "id": 30}'
2020-04-09 18:05:08,385 DEBUG - channelHandler.ssock.recv len:84
2020-04-09 18:05:08,385 DEBUG - total bytes to decode 83, datalen 920
2020-04-09 18:05:08,385 DEBUG - ChannelRecvThread:pack from node, put queue(qsize0),detail len:83,type:0x12,result:0x0,seq:b'6C70F3C270BA11EA9593FA163E301C29',data:b'{"id":0,"jsonrpc":"2.0","result":"0x36"}\n\x00\x00\x00S\x00\x127936672270BA11EABDB3FA163E301C29\x00\x00\x00\x00{"id":3,"jsonrpc":"2.0","result":"0x37"}\n\x00\x00\x00S\x00\x1291BCF10870BA11EA93C5FA163E301C29\x00\x00\x00\x00{"id":6,"jsonrpc":"2.0","result":"0x38"}\n\x00\x00\x00S\x00\x12B338767670BB11EAA2ADFA163E301C29\x00\x00\x00\x00{"id":9,"jsonrpc":"2.0","result":"0x39"}\n\x00\x00\x00T\x00\x12F8B5491672ED11EA903BFA163E301C29\x00\x00\x00\x00{"id":12,"jsonrpc":"2.0","result":"0x3c"}\n\x00\x00\x00T\x00\x1201B601E072EE11EAAF71FA163E301C29\x00\x00\x00\x00{"id":15,"jsonrpc":"2.0","result":"0x3d"}\n\x00\x00\x00T\x00\x1219D85A2A72EE11EA961CFA163E301C29\x00\x00\x00\x00{"id":18,"jsonrpc":"2.0","result":"0x3e"}\n\x00\x00\x00T\x00\x12251D873E72EE11EAAE7CFA163E301C29\x00\x00\x00\x00{"id":21,"jsonrpc":"2.0","result":"0x3f"}\n\x00\x00\x00T\x00\x12019B95AC72EF11EABE1DFA163E301C29\x00\x00\x00\x00{"id":24,"jsonrpc":"2.0","result":"0x40"}\n\x00\x00\x00T\x00\x12E1040C00756B11EAAC7FFA163E301C29\x00\x00\x00\x00{"id":27,"jsonrpc":"2.0","result":"0x41"}\n\x00\x00\x00T\x00\x1297A6670A7A4911EA95FFFA163E301C29\x00\x00\x00\x00{"id":30,"jsonrpc":"2.0","result":"0x42"}\n'
2020-04-09 18:05:08,386 DEBUG - total bytes to decode 83, datalen 837
2020-04-09 18:05:08,386 DEBUG - ChannelRecvThread:pack from node, put queue(qsize1),detail len:83,type:0x12,result:0x0,seq:b'7936672270BA11EABDB3FA163E301C29',data:b'{"id":3,"jsonrpc":"2.0","result":"0x37"}\n\x00\x00\x00S\x00\x1291BCF10870BA11EA93C5FA163E301C29\x00\x00\x00\x00{"id":6,"jsonrpc":"2.0","result":"0x38"}\n\x00\x00\x00S\x00\x12B338767670BB11EAA2ADFA163E301C29\x00\x00\x00\x00{"id":9,"jsonrpc":"2.0","result":"0x39"}\n\x00\x00\x00T\x00\x12F8B5491672ED11EA903BFA163E301C29\x00\x00\x00\x00{"id":12,"jsonrpc":"2.0","result":"0x3c"}\n\x00\x00\x00T\x00\x1201B601E072EE11EAAF71FA163E301C29\x00\x00\x00\x00{"id":15,"jsonrpc":"2.0","result":"0x3d"}\n\x00\x00\x00T\x00\x1219D85A2A72EE11EA961CFA163E301C29\x00\x00\x00\x00{"id":18,"jsonrpc":"2.0","result":"0x3e"}\n\x00\x00\x00T\x00\x12251D873E72EE11EAAE7CFA163E301C29\x00\x00\x00\x00{"id":21,"jsonrpc":"2.0","result":"0x3f"}\n\x00\x00\x00T\x00\x12019B95AC72EF11EABE1DFA163E301C29\x00\x00\x00\x00{"id":24,"jsonrpc":"2.0","result":"0x40"}\n\x00\x00\x00T\x00\x12E1040C00756B11EAAC7FFA163E301C29\x00\x00\x00\x00{"id":27,"jsonrpc":"2.0","result":"0x41"}\n\x00\x00\x00T\x00\x1297A6670A7A4911EA95FFFA163E301C29\x00\x00\x00\x00{"id":30,"jsonrpc":"2.0","result":"0x42"}\n'
2020-04-09 18:05:08,386 DEBUG - total bytes to decode 83, datalen 754
2020-04-09 18:05:08,386 DEBUG - ChannelRecvThread:pack from node, put queue(qsize2),detail len:83,type:0x12,result:0x0,seq:b'91BCF10870BA11EA93C5FA163E301C29',data:b'{"id":6,"jsonrpc":"2.0","result":"0x38"}\n\x00\x00\x00S\x00\x12B338767670BB11EAA2ADFA163E301C29\x00\x00\x00\x00{"id":9,"jsonrpc":"2.0","result":"0x39"}\n\x00\x00\x00T\x00\x12F8B5491672ED11EA903BFA163E301C29\x00\x00\x00\x00{"id":12,"jsonrpc":"2.0","result":"0x3c"}\n\x00\x00\x00T\x00\x1201B601E072EE11EAAF71FA163E301C29\x00\x00\x00\x00{"id":15,"jsonrpc":"2.0","result":"0x3d"}\n\x00\x00\x00T\x00\x1219D85A2A72EE11EA961CFA163E301C29\x00\x00\x00\x00{"id":18,"jsonrpc":"2.0","result":"0x3e"}\n\x00\x00\x00T\x00\x12251D873E72EE11EAAE7CFA163E301C29\x00\x00\x00\x00{"id":21,"jsonrpc":"2.0","result":"0x3f"}\n\x00\x00\x00T\x00\x12019B95AC72EF11EABE1DFA163E301C29\x00\x00\x00\x00{"id":24,"jsonrpc":"2.0","result":"0x40"}\n\x00\x00\x00T\x00\x12E1040C00756B11EAAC7FFA163E301C29\x00\x00\x00\x00{"id":27,"jsonrpc":"2.0","result":"0x41"}\n\x00\x00\x00T\x00\x1297A6670A7A4911EA95FFFA163E301C29\x00\x00\x00\x00{"id":30,"jsonrpc":"2.0","result":"0x42"}\n'
2020-04-09 18:05:08,386 DEBUG - total bytes to decode 83, datalen 671
2020-04-09 18:05:08,386 DEBUG - ChannelRecvThread:pack from node, put queue(qsize3),detail len:83,type:0x12,result:0x0,seq:b'B338767670BB11EAA2ADFA163E301C29',data:b'{"id":9,"jsonrpc":"2.0","result":"0x39"}\n\x00\x00\x00T\x00\x12F8B5491672ED11EA903BFA163E301C29\x00\x00\x00\x00{"id":12,"jsonrpc":"2.0","result":"0x3c"}\n\x00\x00\x00T\x00\x1201B601E072EE11EAAF71FA163E301C29\x00\x00\x00\x00{"id":15,"jsonrpc":"2.0","result":"0x3d"}\n\x00\x00\x00T\x00\x1219D85A2A72EE11EA961CFA163E301C29\x00\x00\x00\x00{"id":18,"jsonrpc":"2.0","result":"0x3e"}\n\x00\x00\x00T\x00\x12251D873E72EE11EAAE7CFA163E301C29\x00\x00\x00\x00{"id":21,"jsonrpc":"2.0","result":"0x3f"}\n\x00\x00\x00T\x00\x12019B95AC72EF11EABE1DFA163E301C29\x00\x00\x00\x00{"id":24,"jsonrpc":"2.0","result":"0x40"}\n\x00\x00\x00T\x00\x12E1040C00756B11EAAC7FFA163E301C29\x00\x00\x00\x00{"id":27,"jsonrpc":"2.0","result":"0x41"}\n\x00\x00\x00T\x00\x1297A6670A7A4911EA95FFFA163E301C29\x00\x00\x00\x00{"id":30,"jsonrpc":"2.0","result":"0x42"}\n'
2020-04-09 18:05:08,386 DEBUG - total bytes to decode 84, datalen 588
2020-04-09 18:05:08,386 DEBUG - ChannelRecvThread:pack from node, put queue(qsize4),detail len:84,type:0x12,result:0x0,seq:b'F8B5491672ED11EA903BFA163E301C29',data:b'{"id":12,"jsonrpc":"2.0","result":"0x3c"}\n\x00\x00\x00T\x00\x1201B601E072EE11EAAF71FA163E301C29\x00\x00\x00\x00{"id":15,"jsonrpc":"2.0","result":"0x3d"}\n\x00\x00\x00T\x00\x1219D85A2A72EE11EA961CFA163E301C29\x00\x00\x00\x00{"id":18,"jsonrpc":"2.0","result":"0x3e"}\n\x00\x00\x00T\x00\x12251D873E72EE11EAAE7CFA163E301C29\x00\x00\x00\x00{"id":21,"jsonrpc":"2.0","result":"0x3f"}\n\x00\x00\x00T\x00\x12019B95AC72EF11EABE1DFA163E301C29\x00\x00\x00\x00{"id":24,"jsonrpc":"2.0","result":"0x40"}\n\x00\x00\x00T\x00\x12E1040C00756B11EAAC7FFA163E301C29\x00\x00\x00\x00{"id":27,"jsonrpc":"2.0","result":"0x41"}\n\x00\x00\x00T\x00\x1297A6670A7A4911EA95FFFA163E301C29\x00\x00\x00\x00{"id":30,"jsonrpc":"2.0","result":"0x42"}\n'
2020-04-09 18:05:08,386 DEBUG - total bytes to decode 84, datalen 504
2020-04-09 18:05:08,386 DEBUG - ChannelRecvThread:pack from node, put queue(qsize5),detail len:84,type:0x12,result:0x0,seq:b'01B601E072EE11EAAF71FA163E301C29',data:b'{"id":15,"jsonrpc":"2.0","result":"0x3d"}\n\x00\x00\x00T\x00\x1219D85A2A72EE11EA961CFA163E301C29\x00\x00\x00\x00{"id":18,"jsonrpc":"2.0","result":"0x3e"}\n\x00\x00\x00T\x00\x12251D873E72EE11EAAE7CFA163E301C29\x00\x00\x00\x00{"id":21,"jsonrpc":"2.0","result":"0x3f"}\n\x00\x00\x00T\x00\x12019B95AC72EF11EABE1DFA163E301C29\x00\x00\x00\x00{"id":24,"jsonrpc":"2.0","result":"0x40"}\n\x00\x00\x00T\x00\x12E1040C00756B11EAAC7FFA163E301C29\x00\x00\x00\x00{"id":27,"jsonrpc":"2.0","result":"0x41"}\n\x00\x00\x00T\x00\x1297A6670A7A4911EA95FFFA163E301C29\x00\x00\x00\x00{"id":30,"jsonrpc":"2.0","result":"0x42"}\n'
2020-04-09 18:05:08,386 DEBUG - total bytes to decode 84, datalen 420
2020-04-09 18:05:08,386 DEBUG - ChannelRecvThread:pack from node, put queue(qsize6),detail len:84,type:0x12,result:0x0,seq:b'19D85A2A72EE11EA961CFA163E301C29',data:b'{"id":18,"jsonrpc":"2.0","result":"0x3e"}\n\x00\x00\x00T\x00\x12251D873E72EE11EAAE7CFA163E301C29\x00\x00\x00\x00{"id":21,"jsonrpc":"2.0","result":"0x3f"}\n\x00\x00\x00T\x00\x12019B95AC72EF11EABE1DFA163E301C29\x00\x00\x00\x00{"id":24,"jsonrpc":"2.0","result":"0x40"}\n\x00\x00\x00T\x00\x12E1040C00756B11EAAC7FFA163E301C29\x00\x00\x00\x00{"id":27,"jsonrpc":"2.0","result":"0x41"}\n\x00\x00\x00T\x00\x1297A6670A7A4911EA95FFFA163E301C29\x00\x00\x00\x00{"id":30,"jsonrpc":"2.0","result":"0x42"}\n'
2020-04-09 18:05:08,386 DEBUG - total bytes to decode 84, datalen 336
2020-04-09 18:05:08,386 DEBUG - ChannelRecvThread:pack from node, put queue(qsize7),detail len:84,type:0x12,result:0x0,seq:b'251D873E72EE11EAAE7CFA163E301C29',data:b'{"id":21,"jsonrpc":"2.0","result":"0x3f"}\n\x00\x00\x00T\x00\x12019B95AC72EF11EABE1DFA163E301C29\x00\x00\x00\x00{"id":24,"jsonrpc":"2.0","result":"0x40"}\n\x00\x00\x00T\x00\x12E1040C00756B11EAAC7FFA163E301C29\x00\x00\x00\x00{"id":27,"jsonrpc":"2.0","result":"0x41"}\n\x00\x00\x00T\x00\x1297A6670A7A4911EA95FFFA163E301C29\x00\x00\x00\x00{"id":30,"jsonrpc":"2.0","result":"0x42"}\n'
2020-04-09 18:05:08,386 DEBUG - total bytes to decode 84, datalen 252
2020-04-09 18:05:08,386 DEBUG - ChannelRecvThread:pack from node, put queue(qsize8),detail len:84,type:0x12,result:0x0,seq:b'019B95AC72EF11EABE1DFA163E301C29',data:b'{"id":24,"jsonrpc":"2.0","result":"0x40"}\n\x00\x00\x00T\x00\x12E1040C00756B11EAAC7FFA163E301C29\x00\x00\x00\x00{"id":27,"jsonrpc":"2.0","result":"0x41"}\n\x00\x00\x00T\x00\x1297A6670A7A4911EA95FFFA163E301C29\x00\x00\x00\x00{"id":30,"jsonrpc":"2.0","result":"0x42"}\n'
2020-04-09 18:05:08,386 DEBUG - total bytes to decode 84, datalen 168
2020-04-09 18:05:08,386 DEBUG - ChannelRecvThread:pack from node, put queue(qsize9),detail len:84,type:0x12,result:0x0,seq:b'E1040C00756B11EAAC7FFA163E301C29',data:b'{"id":27,"jsonrpc":"2.0","result":"0x41"}\n\x00\x00\x00T\x00\x1297A6670A7A4911EA95FFFA163E301C29\x00\x00\x00\x00{"id":30,"jsonrpc":"2.0","result":"0x42"}\n'
2020-04-09 18:05:08,386 DEBUG - total bytes to decode 84, datalen 84
2020-04-09 18:05:08,386 DEBUG - ChannelRecvThread:pack from node, put queue(qsize10),detail len:84,type:0x12,result:0x0,seq:b'97A6670A7A4911EA95FFFA163E301C29',data:b'{"id":30,"jsonrpc":"2.0","result":"0x42"}\n'
2020-04-09 18:05:08,386 DEBUG - ChannelRecvThread channelHandler.ssock.recv begin.
2020-04-09 18:05:08,386 DEBUG - onResponse, emitter: getResult_b'97A6670A7A4911EA95FFFA163E301C29'_18
2020-04-09 18:05:08,387 DEBUG - response from server , seq: b'97A6670A7A4911EA95FFFA163E301C29', type:18
2020-04-09 18:05:08,387 DEBUG - block notify emitter: onResponse_b'00000000000000000000000000000000'_4097
2020-04-09 18:05:08,387 INFO - using protocol channel
2020-04-09 18:05:08,389 DEBUG - channelSendThread send pack len:19,type:0x32,result:0x0,seq:b'97A93D367A4911EA95FFFA163E301C29',data:["_block_notify_1"]
2020-04-09 18:05:09,874 DEBUG - request rpc_data : b'{"jsonrpc": "2.0", "method": "sendRawTransaction", "params": [1, "0xf902b584062baf6b8401c9c3808401c9c38082023694f805cc0fdaece77cb724a36dd66047758b47c99d80b902446a86a33d00000000000000000000000000000000000000000000000000000000000000c000000000000000000000000000000000000000000000000000000000000001000000000000000000000000000000000000000000000000000000000000000140000000000000000000000000000000000000000000000000000000000000018000000000000000000000000000000000000000000000000000000000000001c0000000000000000000000000000000000000000000000000000000000000020000000000000000000000000000000000000000000000000000000000000000086c6964756e77656900000000000000000000000000000000000000000000000000000000000000000000000000000000000000000000000000000000000000086c6964756e77656900000000000000000000000000000000000000000000000000000000000000000000000000000000000000000000000000000000000000086c6964756e77656900000000000000000000000000000000000000000000000000000000000000000000000000000000000000000000000000000000000000086c6964756e77656900000000000000000000000000000000000000000000000000000000000000000000000000000000000000000000000000000000000000086c6964756e77656900000000000000000000000000000000000000000000000000000000000000000000000000000000000000000000000000000000000000086c6964756e7765690000000000000000000000000000000000000000000000000101801ca054fee9805539ec0922529397a96002c40ce9861f15a94c530539435a07e598c3a00fec169863651e25cce2fe240dfca4ade2745fd0317ae711967564c582f8df58"], "id": 31}'
2020-04-09 18:05:09,875 DEBUG - channelSendThread send pack len:1473,type:0x12,result:0x0,seq:b'988C374E7A4911EA95FFFA163E301C29',data:b'{"jsonrpc": "2.0", "method": "sendRawTransaction", "params": [1, "0xf902b584062baf6b8401c9c3808401c9c38082023694f805cc0fdaece77cb724a36dd66047758b47c99d80b902446a86a33d00000000000000000000000000000000000000000000000000000000000000c000000000000000000000000000000000000000000000000000000000000001000000000000000000000000000000000000000000000000000000000000000140000000000000000000000000000000000000000000000000000000000000018000000000000000000000000000000000000000000000000000000000000001c0000000000000000000000000000000000000000000000000000000000000020000000000000000000000000000000000000000000000000000000000000000086c6964756e77656900000000000000000000000000000000000000000000000000000000000000000000000000000000000000000000000000000000000000086c6964756e77656900000000000000000000000000000000000000000000000000000000000000000000000000000000000000000000000000000000000000086c6964756e77656900000000000000000000000000000000000000000000000000000000000000000000000000000000000000000000000000000000000000086c6964756e77656900000000000000000000000000000000000000000000000000000000000000000000000000000000000000000000000000000000000000086c6964756e77656900000000000000000000000000000000000000000000000000000000000000000000000000000000000000000000000000000000000000086c6964756e7765690000000000000000000000000000000000000000000000000101801ca054fee9805539ec0922529397a96002c40ce9861f15a94c530539435a07e598c3a00fec169863651e25cce2fe240dfca4ade2745fd0317ae711967564c582f8df58"], "id": 31}'
2020-04-09 18:05:09,901 DEBUG - channelHandler.ssock.recv len:146
2020-04-09 18:05:09,901 DEBUG - total bytes to decode 146, datalen 146
2020-04-09 18:05:09,901 DEBUG - ChannelRecvThread:pack from node, put queue(qsize0),detail len:146,type:0x12,result:0x0,seq:b'988C374E7A4911EA95FFFA163E301C29',data:b'{"id":31,"jsonrpc":"2.0","result":"0xc4442578cadf503a38a94fefd6854fee29768791dd55ed15fea49a8b7f01dbd1"}\n'
2020-04-09 18:05:09,901 DEBUG - ChannelRecvThread channelHandler.ssock.recv begin.
2020-04-09 18:05:09,901 DEBUG - onResponse, emitter: getResult_b'988C374E7A4911EA95FFFA163E301C29'_18
2020-04-09 18:05:09,902 DEBUG - response from server , seq: b'988C374E7A4911EA95FFFA163E301C29', type:18
2020-04-09 18:05:09,928 DEBUG - channelHandler.ssock.recv len:62
2020-04-09 18:05:09,928 DEBUG - total bytes to decode 62, datalen 62
2020-04-09 18:05:09,928 DEBUG - ChannelRecvThread:pack from node, put queue(qsize0),detail len:62,type:0x1001,result:0x0,seq:b'00000000000000000000000000000000',data:b'\x10_block_notify_11,67'
2020-04-09 18:05:09,928 DEBUG - ChannelRecvThread channelHandler.ssock.recv begin.
2020-04-09 18:05:09,928 DEBUG - onResponse, emitter: getResult_b'00000000000000000000000000000000'_4097
2020-04-09 18:05:09,929 DEBUG - receive block notify: seq: b'00000000000000000000000000000000' type:4097
2020-04-09 18:05:09,929 DEBUG - currentBlockNumber: 67
2020-04-09 18:05:09,935 DEBUG - channelHandler.ssock.recv len:2408
2020-04-09 18:05:09,935 DEBUG - total bytes to decode 2408, datalen 2408
2020-04-09 18:05:09,935 DEBUG - ChannelRecvThread:pack from node, put queue(qsize0),detail len:2408,type:0x1000,result:0x0,seq:b'988C374E7A4911EA95FFFA163E301C29',data:b'{\n   "blockHash" : "0x34a34f627a4a75bb91664432ebe1167db8d01aab32136440e57fcc4867f666b4",\n   "blockNumber" : "0x43",\n   "contractAddress" : "0x0000000000000000000000000000000000000000",\n   "from" : "0x95198b93705e394a916579e048c8a32ddfb900f7",\n   "gasUsed" : "0x7478",\n   "input" : "0x6a86a33d00000000000000000000000000000000000000000000000000000000000000c000000000000000000000000000000000000000000000000000000000000001000000000000000000000000000000000000000000000000000000000000000140000000000000000000000000000000000000000000000000000000000000018000000000000000000000000000000000000000000000000000000000000001c0000000000000000000000000000000000000000000000000000000000000020000000000000000000000000000000000000000000000000000000000000000086c6964756e77656900000000000000000000000000000000000000000000000000000000000000000000000000000000000000000000000000000000000000086c6964756e77656900000000000000000000000000000000000000000000000000000000000000000000000000000000000000000000000000000000000000086c6964756e77656900000000000000000000000000000000000000000000000000000000000000000000000000000000000000000000000000000000000000086c6964756e77656900000000000000000000000000000000000000000000000000000000000000000000000000000000000000000000000000000000000000086c6964756e77656900000000000000000000000000000000000000000000000000000000000000000000000000000000000000000000000000000000000000086c6964756e776569000000000000000000000000000000000000000000000000",\n   "logs" : [],\n   "logsBloom" : "0x00000000000000000000000000000000000000000000000000000000000000000000000000000000000000000000000000000000000000000000000000000000000000000000000000000000000000000000000000000000000000000000000000000000000000000000000000000000000000000000000000000000000000000000000000000000000000000000000000000000000000000000000000000000000000000000000000000000000000000000000000000000000000000000000000000000000000000000000000000000000000000000000000000000000000000000000000000000000000000000000000000000000000000000000000000000",\n   "output" : "0x0000000000000000000000000000000000000000000000000000000000000bbb",\n   "root" : "0x2ea9ab9198d1638007400cd2c3bef1cc745b864b76011a0e1bc52180ac6452d4",\n   "status" : "0x0",\n   "to" : "0xf805cc0fdaece77cb724a36dd66047758b47c99d",\n   "transactionHash" : "0xc4442578cadf503a38a94fefd6854fee29768791dd55ed15fea49a8b7f01dbd1",\n   "transactionIndex" : "0x0"\n}\n'
2020-04-09 18:05:09,935 DEBUG - ChannelRecvThread channelHandler.ssock.recv begin.
2020-04-09 18:05:09,935 DEBUG - onResponse, emitter: getResult_b'988C374E7A4911EA95FFFA163E301C29'_4096
2020-04-09 18:05:09,935 DEBUG - response from server , seq: b'988C374E7A4911EA95FFFA163E301C29', type:4096
2020-04-09 18:05:09,936 DEBUG - request rpc_data : b'{"jsonrpc": "2.0", "method": "getTransactionByHash", "params": [1, "0xc4442578cadf503a38a94fefd6854fee29768791dd55ed15fea49a8b7f01dbd1"], "id": 32}'
2020-04-09 18:05:09,936 DEBUG - channelSendThread send pack len:147,type:0x12,result:0x0,seq:b'989594EC7A4911EA95FFFA163E301C29',data:b'{"jsonrpc": "2.0", "method": "getTransactionByHash", "params": [1, "0xc4442578cadf503a38a94fefd6854fee29768791dd55ed15fea49a8b7f01dbd1"], "id": 32}'
2020-04-09 18:05:09,977 DEBUG - channelHandler.ssock.recv len:1632
2020-04-09 18:05:09,977 DEBUG - total bytes to decode 1632, datalen 1632
2020-04-09 18:05:09,978 DEBUG - ChannelRecvThread:pack from node, put queue(qsize0),detail len:1632,type:0x12,result:0x0,seq:b'989594EC7A4911EA95FFFA163E301C29',data:b'{"id":32,"jsonrpc":"2.0","result":{"blockHash":"0x34a34f627a4a75bb91664432ebe1167db8d01aab32136440e57fcc4867f666b4","blockNumber":"0x43","from":"0x95198b93705e394a916579e048c8a32ddfb900f7","gas":"0x1c9c380","gasPrice":"0x1c9c380","hash":"0xc4442578cadf503a38a94fefd6854fee29768791dd55ed15fea49a8b7f01dbd1","input":"0x6a86a33d00000000000000000000000000000000000000000000000000000000000000c000000000000000000000000000000000000000000000000000000000000001000000000000000000000000000000000000000000000000000000000000000140000000000000000000000000000000000000000000000000000000000000018000000000000000000000000000000000000000000000000000000000000001c0000000000000000000000000000000000000000000000000000000000000020000000000000000000000000000000000000000000000000000000000000000086c6964756e77656900000000000000000000000000000000000000000000000000000000000000000000000000000000000000000000000000000000000000086c6964756e77656900000000000000000000000000000000000000000000000000000000000000000000000000000000000000000000000000000000000000086c6964756e77656900000000000000000000000000000000000000000000000000000000000000000000000000000000000000000000000000000000000000086c6964756e77656900000000000000000000000000000000000000000000000000000000000000000000000000000000000000000000000000000000000000086c6964756e77656900000000000000000000000000000000000000000000000000000000000000000000000000000000000000000000000000000000000000086c6964756e776569000000000000000000000000000000000000000000000000","nonce":"0x62baf6b","to":"0xf805cc0fdaece77cb724a36dd66047758b47c99d","transactionIndex":"0x0","value":"0x0"}}\n'
2020-04-09 18:05:09,978 DEBUG - ChannelRecvThread channelHandler.ssock.recv begin.
2020-04-09 18:05:09,978 DEBUG - onResponse, emitter: getResult_b'989594EC7A4911EA95FFFA163E301C29'_18
2020-04-09 18:05:09,978 DEBUG - response from server , seq: b'989594EC7A4911EA95FFFA163E301C29', type:18
2020-04-09 18:05:09,978 DEBUG - channelHandler.ssock.recv len:0
2020-04-09 18:05:09,979 DEBUG - channelHandler:thread finished ,keepWorking = False
2020-04-09 18:05:10,079 DEBUG - ChannelRecvThread:thread finished ,keepWorking = False
2020-04-09 18:05:10,136 DEBUG - channelSendThread:thread finished ,keepWorking = False
