2020-04-29 21:01:16,429 DEBUG - connect 117.50.95.250:20200,as socket <socket.socket fd=7, family=AddressFamily.AF_INET, type=SocketKind.SOCK_STREAM, proto=6, laddr=('192.168.0.208', 56990), raddr=('117.50.95.250', 20200)>
2020-04-29 21:01:16,521 DEBUG - ChannelRecvThread:start thread-->
2020-04-29 21:01:16,521 DEBUG - ChannelRecvThread channelHandler.ssock.recv begin.
2020-04-29 21:01:16,521 DEBUG - channelSendThread:start thread-->
2020-04-29 21:01:16,521 DEBUG - channelHandler:start thread-->
2020-04-29 21:01:16,521 DEBUG - request rpc_data : b'{"jsonrpc": "2.0", "method": "getBlockNumber", "params": [1], "id": 0}'
2020-04-29 21:01:16,522 DEBUG - channelSendThread send pack len:70,type:0x12,result:0x0,seq:b'8305B99C8A1911EA9AB7FA163E301C29',data:b'{"jsonrpc": "2.0", "method": "getBlockNumber", "params": [1], "id": 0}'
2020-04-29 21:01:16,551 DEBUG - channelHandler.ssock.recv len:82
2020-04-29 21:01:16,552 DEBUG - total bytes to decode 82, datalen 82
2020-04-29 21:01:16,552 DEBUG - ChannelRecvThread:pack from node, put queue(qsize0),detail len:82,type:0x12,result:0x0,seq:b'8305B99C8A1911EA9AB7FA163E301C29',data:b'{"id":0,"jsonrpc":"2.0","result":"0x4"}\n'
2020-04-29 21:01:16,552 DEBUG - ChannelRecvThread channelHandler.ssock.recv begin.
2020-04-29 21:01:16,552 DEBUG - onResponse, emitter: getResult_b'8305B99C8A1911EA9AB7FA163E301C29'_18
2020-04-29 21:01:16,552 DEBUG - response from server , seq: b'8305B99C8A1911EA9AB7FA163E301C29', type:18
2020-04-29 21:01:16,552 DEBUG - block notify emitter: onResponse_b'00000000000000000000000000000000'_4097
2020-04-29 21:01:16,553 INFO - using protocol channel
2020-04-29 21:01:16,553 DEBUG - channelSendThread send pack len:19,type:0x32,result:0x0,seq:b'830A55F68A1911EA9AB7FA163E301C29',data:["_block_notify_1"]
2020-04-29 21:01:17,875 DEBUG - request rpc_data : b'{"jsonrpc": "2.0", "method": "sendRawTransaction", "params": [1, "0xf90f8d84053ab48b8401c9c3808401c9c3808201f88080b90f30608060405260008055610bba600155610bbb600255610bbc60035534801561002657600080fd5b50610efa806100366000396000f30060806040526004361061004c576000357c0100000000000000000000000000000000000000000000000000000000900463ffffffff1680636a86a33d14610051578063ddcfd8951461022c575b600080fd5b34801561005d57600080fd5b50610216600480360381019080803590602001908201803590602001908080601f0160208091040260200160405190810160405280939291908181526020018383808284378201915050505050509192919290803590602001908201803590602001908080601f0160208091040260200160405190810160405280939291908181526020018383808284378201915050505050509192919290803590602001908201803590602001908080601f0160208091040260200160405190810160405280939291908181526020018383808284378201915050505050509192919290803590602001908201803590602001908080601f0160208091040260200160405190810160405280939291908181526020018383808284378201915050505050509192919290803590602001908201803590602001908080601f0160208091040260200160405190810160405280939291908181526020018383808284378201915050505050509192919290803590602001908201803590602001908080601f01602080910402602001604051908101604052809392919081815260200183838082843782019150505050505091929192905050506104be565b6040518082815260200191505060405180910390f35b34801561023857600080fd5b50610293600480360381019080803590602001908201803590602001908080601f0160208091040260200160405190810160405280939291908181526020018383808284378201915050505050509192919290505050610760565b60405180806020018060200180602001806020018060200186810386528b818151815260200191508051906020019080838360005b838110156102e35780820151818401526020810190506102c8565b50505050905090810190601f1680156103105780820380516001836020036101000a031916815260200191505b5086810385528a818151815260200191508051906020019080838360005b8381101561034957808201518184015260208101905061032e565b50505050905090810190601f1680156103765780820380516001836020036101000a031916815260200191505b50868103845289818151815260200191508051906020019080838360005b838110156103af578082015181840152602081019050610394565b50505050905090810190601f1680156103dc5780820380516001836020036101000a031916815260200191505b50868103835288818151815260200191508051906020019080838360005b838110156104155780820151818401526020810190506103fa565b50505050905090810190601f1680156104425780820380516001836020036101000a031916815260200191505b50868103825287818151815260200191508051906020019080838360005b8381101561047b578082015181840152602081019050610460565b50505050905090810190601f1680156104a85780820380516001836020036101000a031916815260200191505b509a505050505050505050505060405180910390f35b6000806004866040518082805190602001908083835b6020831015156104f957805182526020820191506020810190506020830392506104d4565b6001836020036101000a0380198251168184511680821785525050505050509050019150509081526020016040518091039020905060008160020180546001816001161561010002031660029004905014151561055a576002549150610755565b85816002019080519060200190610572929190610c64565b508781600001908051906020019061058b929190610ce4565b50868160010190805190602001906105a4929190610ce4565b50848160030190805190602001906105bd929190610ce4565b50838160040190805190602001906105d6929190610ce4565b50828160050190805190602001906105ef929190610ce4565b50806004876040518082805190602001908083835b6020831015156106295780518252602082019150602081019050602083039250610604565b6001836020036101000a038019825116818451168082178552505050505050905001915050908152602001604051809103902060008201816000019080546001816001161561010002031660029004610683929190610d64565b50600182018160010190805460018160011615610100020316600290046106ab929190610d64565b50600282018160020190805460018160011615610100020316600290046106d3929190610deb565b50600382018160030190805460018160011615610100020316600290046106fb929190610d64565b5060048201816004019080546001816001161561010002031660029004610723929190610d64565b506005820181600501908054600181600116156101000203166002900461074b929190610d64565b5090505060005491505b509695505050505050565b6060806060806060610770610e72565b6004876040518082805190602001908083835b6020831015156107a85780518252602082019150602081019050602083039250610783565b6001836020036101000a038019825116818451168082178552505050505050905001915050908152602001604051809103902060c06040519081016040529081600082018054600181600116156101000203166002900480601f0160208091040260200160405190810160405280929190818152602001828054600181600116156101000203166002900480156108805780601f1061085557610100808354040283529160200191610880565b820191906000526020600020905b81548152906001019060200180831161086357829003601f168201915b50505050508152602001600182018054600181600116156101000203166002900480601f0160208091040260200160405190810160405280929190818152602001828054600181600116156101000203166002900480156109225780601f106108f757610100808354040283529160200191610922565b820191906000526020600020905b81548152906001019060200180831161090557829003601f168201915b50505050508152602001600282018054600181600116156101000203166002900480601f0160208091040260200160405190810160405280929190818152602001828054600181600116156101000203166002900480156109c45780601f10610999576101008083540402835291602001916109c4565b820191906000526020600020905b8154815290600101906020018083116109a757829003601f168201915b50505050508152602001600382018054600181600116156101000203166002900480601f016020809104026020016040519081016040528092919081815260200182805460018160011615610100020316600290048015610a665780601f10610a3b57610100808354040283529160200191610a66565b820191906000526020600020905b815481529060010190602001808311610a4957829003601f168201915b50505050508152602001600482018054600181600116156101000203166002900480601f016020809104026020016040519081016040528092919081815260200182805460018160011615610100020316600290048015610b085780601f10610add57610100808354040283529160200191610b08565b820191906000526020600020905b815481529060010190602001808311610aeb57829003601f168201915b50505050508152602001600582018054600181600116156101000203166002900480601f016020809104026020016040519081016040528092919081815260200182805460018160011615610100020316600290048015610baa5780601f10610b7f57610100808354040283529160200191610baa565b820191906000526020600020905b815481529060010190602001808311610b8d57829003601f168201915b505050505081525050905060008160400151511415610c27576020604051908101604052806000815250602060405190810160405280600081525060206040519081016040528060008152506020604051908101604052806000815250602060405190810160405280600081525095509550955095509550610c5a565b80600001518160200151826060015183608001518460a00151849450839350829250819150809050955095509550955095505b5091939590929450565b828054600181600116156101000203166002900490600052602060002090601f016020900481019282601f10610ca557805160ff1916838001178555610cd3565b82800160010185558215610cd3579182015b82811115610cd2578251825591602001919060010190610cb7565b5b509050610ce09190610ea9565b5090565b828054600181600116156101000203166002900490600052602060002090601f016020900481019282601f10610d2557805160ff1916838001178555610d53565b82800160010185558215610d53579182015b82811115610d52578251825591602001919060010190610d37565b5b509050610d609190610ea9565b5090565b828054600181600116156101000203166002900490600052602060002090601f016020900481019282601f10610d9d5780548555610dda565b82800160010185558215610dda57600052602060002091601f016020900482015b82811115610dd9578254825591600101919060010190610dbe565b5b509050610de79190610ea9565b5090565b828054600181600116156101000203166002900490600052602060002090601f016020900481019282601f10610e245780548555610e61565b82800160010185558215610e6157600052602060002091601f016020900482015b82811115610e60578254825591600101919060010190610e45565b5b509050610e6e9190610ea9565b5090565b60c0604051908101604052806060815260200160608152602001606081526020016060815260200160608152602001606081525090565b610ecb91905b80821115610ec7576000816000905550600101610eaf565b5090565b905600a165627a7a72305820837643d9c21e6f6a4886d49820455dba84f519ee38704d95dd06f6586acc11bb00290101801ca0cebd8084721cbb0c36618046595899e3d7f6986c7245d9d1a59839feb883c5aaa070ff65916f8e43d4dd94e5271c88df31134f0306e518f49d0345c2152218f987"], "id": 1}'
2020-04-29 21:01:17,875 DEBUG - channelSendThread send pack len:8048,type:0x12,result:0x0,seq:b'83D423B88A1911EA9AB7FA163E301C29',data:b'{"jsonrpc": "2.0", "method": "sendRawTransaction", "params": [1, "0xf90f8d84053ab48b8401c9c3808401c9c3808201f88080b90f30608060405260008055610bba600155610bbb600255610bbc60035534801561002657600080fd5b50610efa806100366000396000f30060806040526004361061004c576000357c0100000000000000000000000000000000000000000000000000000000900463ffffffff1680636a86a33d14610051578063ddcfd8951461022c575b600080fd5b34801561005d57600080fd5b50610216600480360381019080803590602001908201803590602001908080601f0160208091040260200160405190810160405280939291908181526020018383808284378201915050505050509192919290803590602001908201803590602001908080601f0160208091040260200160405190810160405280939291908181526020018383808284378201915050505050509192919290803590602001908201803590602001908080601f0160208091040260200160405190810160405280939291908181526020018383808284378201915050505050509192919290803590602001908201803590602001908080601f0160208091040260200160405190810160405280939291908181526020018383808284378201915050505050509192919290803590602001908201803590602001908080601f0160208091040260200160405190810160405280939291908181526020018383808284378201915050505050509192919290803590602001908201803590602001908080601f01602080910402602001604051908101604052809392919081815260200183838082843782019150505050505091929192905050506104be565b6040518082815260200191505060405180910390f35b34801561023857600080fd5b50610293600480360381019080803590602001908201803590602001908080601f0160208091040260200160405190810160405280939291908181526020018383808284378201915050505050509192919290505050610760565b60405180806020018060200180602001806020018060200186810386528b818151815260200191508051906020019080838360005b838110156102e35780820151818401526020810190506102c8565b50505050905090810190601f1680156103105780820380516001836020036101000a031916815260200191505b5086810385528a818151815260200191508051906020019080838360005b8381101561034957808201518184015260208101905061032e565b50505050905090810190601f1680156103765780820380516001836020036101000a031916815260200191505b50868103845289818151815260200191508051906020019080838360005b838110156103af578082015181840152602081019050610394565b50505050905090810190601f1680156103dc5780820380516001836020036101000a031916815260200191505b50868103835288818151815260200191508051906020019080838360005b838110156104155780820151818401526020810190506103fa565b50505050905090810190601f1680156104425780820380516001836020036101000a031916815260200191505b50868103825287818151815260200191508051906020019080838360005b8381101561047b578082015181840152602081019050610460565b50505050905090810190601f1680156104a85780820380516001836020036101000a031916815260200191505b509a505050505050505050505060405180910390f35b6000806004866040518082805190602001908083835b6020831015156104f957805182526020820191506020810190506020830392506104d4565b6001836020036101000a0380198251168184511680821785525050505050509050019150509081526020016040518091039020905060008160020180546001816001161561010002031660029004905014151561055a576002549150610755565b85816002019080519060200190610572929190610c64565b508781600001908051906020019061058b929190610ce4565b50868160010190805190602001906105a4929190610ce4565b50848160030190805190602001906105bd929190610ce4565b50838160040190805190602001906105d6929190610ce4565b50828160050190805190602001906105ef929190610ce4565b50806004876040518082805190602001908083835b6020831015156106295780518252602082019150602081019050602083039250610604565b6001836020036101000a038019825116818451168082178552505050505050905001915050908152602001604051809103902060008201816000019080546001816001161561010002031660029004610683929190610d64565b50600182018160010190805460018160011615610100020316600290046106ab929190610d64565b50600282018160020190805460018160011615610100020316600290046106d3929190610deb565b50600382018160030190805460018160011615610100020316600290046106fb929190610d64565b5060048201816004019080546001816001161561010002031660029004610723929190610d64565b506005820181600501908054600181600116156101000203166002900461074b929190610d64565b5090505060005491505b509695505050505050565b6060806060806060610770610e72565b6004876040518082805190602001908083835b6020831015156107a85780518252602082019150602081019050602083039250610783565b6001836020036101000a038019825116818451168082178552505050505050905001915050908152602001604051809103902060c06040519081016040529081600082018054600181600116156101000203166002900480601f0160208091040260200160405190810160405280929190818152602001828054600181600116156101000203166002900480156108805780601f1061085557610100808354040283529160200191610880565b820191906000526020600020905b81548152906001019060200180831161086357829003601f168201915b50505050508152602001600182018054600181600116156101000203166002900480601f0160208091040260200160405190810160405280929190818152602001828054600181600116156101000203166002900480156109225780601f106108f757610100808354040283529160200191610922565b820191906000526020600020905b81548152906001019060200180831161090557829003601f168201915b50505050508152602001600282018054600181600116156101000203166002900480601f0160208091040260200160405190810160405280929190818152602001828054600181600116156101000203166002900480156109c45780601f10610999576101008083540402835291602001916109c4565b820191906000526020600020905b8154815290600101906020018083116109a757829003601f168201915b50505050508152602001600382018054600181600116156101000203166002900480601f016020809104026020016040519081016040528092919081815260200182805460018160011615610100020316600290048015610a665780601f10610a3b57610100808354040283529160200191610a66565b820191906000526020600020905b815481529060010190602001808311610a4957829003601f168201915b50505050508152602001600482018054600181600116156101000203166002900480601f016020809104026020016040519081016040528092919081815260200182805460018160011615610100020316600290048015610b085780601f10610add57610100808354040283529160200191610b08565b820191906000526020600020905b815481529060010190602001808311610aeb57829003601f168201915b50505050508152602001600582018054600181600116156101000203166002900480601f016020809104026020016040519081016040528092919081815260200182805460018160011615610100020316600290048015610baa5780601f10610b7f57610100808354040283529160200191610baa565b820191906000526020600020905b815481529060010190602001808311610b8d57829003601f168201915b505050505081525050905060008160400151511415610c27576020604051908101604052806000815250602060405190810160405280600081525060206040519081016040528060008152506020604051908101604052806000815250602060405190810160405280600081525095509550955095509550610c5a565b80600001518160200151826060015183608001518460a00151849450839350829250819150809050955095509550955095505b5091939590929450565b828054600181600116156101000203166002900490600052602060002090601f016020900481019282601f10610ca557805160ff1916838001178555610cd3565b82800160010185558215610cd3579182015b82811115610cd2578251825591602001919060010190610cb7565b5b509050610ce09190610ea9565b5090565b828054600181600116156101000203166002900490600052602060002090601f016020900481019282601f10610d2557805160ff1916838001178555610d53565b82800160010185558215610d53579182015b82811115610d52578251825591602001919060010190610d37565b5b509050610d609190610ea9565b5090565b828054600181600116156101000203166002900490600052602060002090601f016020900481019282601f10610d9d5780548555610dda565b82800160010185558215610dda57600052602060002091601f016020900482015b82811115610dd9578254825591600101919060010190610dbe565b5b509050610de79190610ea9565b5090565b828054600181600116156101000203166002900490600052602060002090601f016020900481019282601f10610e245780548555610e61565b82800160010185558215610e6157600052602060002091601f016020900482015b82811115610e60578254825591600101919060010190610e45565b5b509050610e6e9190610ea9565b5090565b60c0604051908101604052806060815260200160608152602001606081526020016060815260200160608152602001606081525090565b610ecb91905b80821115610ec7576000816000905550600101610eaf565b5090565b905600a165627a7a72305820837643d9c21e6f6a4886d49820455dba84f519ee38704d95dd06f6586acc11bb00290101801ca0cebd8084721cbb0c36618046595899e3d7f6986c7245d9d1a59839feb883c5aaa070ff65916f8e43d4dd94e5271c88df31134f0306e518f49d0345c2152218f987"], "id": 1}'
2020-04-29 21:01:17,915 DEBUG - channelHandler.ssock.recv len:145
2020-04-29 21:01:17,915 DEBUG - total bytes to decode 145, datalen 145
2020-04-29 21:01:17,915 DEBUG - ChannelRecvThread:pack from node, put queue(qsize0),detail len:145,type:0x12,result:0x0,seq:b'83D423B88A1911EA9AB7FA163E301C29',data:b'{"id":1,"jsonrpc":"2.0","result":"0x6cd6f662d1437c28669fa36cf2c38b498d8620c8a257226e8ebeb28e179103ea"}\n'
2020-04-29 21:01:17,915 DEBUG - ChannelRecvThread channelHandler.ssock.recv begin.
2020-04-29 21:01:17,915 DEBUG - onResponse, emitter: getResult_b'83D423B88A1911EA9AB7FA163E301C29'_18
2020-04-29 21:01:17,915 DEBUG - response from server , seq: b'83D423B88A1911EA9AB7FA163E301C29', type:18
2020-04-29 21:01:17,932 DEBUG - channelHandler.ssock.recv len:61
2020-04-29 21:01:17,932 DEBUG - total bytes to decode 61, datalen 61
2020-04-29 21:01:17,932 DEBUG - ChannelRecvThread:pack from node, put queue(qsize0),detail len:61,type:0x1001,result:0x0,seq:b'00000000000000000000000000000000',data:b'\x10_block_notify_11,5'
2020-04-29 21:01:17,932 DEBUG - ChannelRecvThread channelHandler.ssock.recv begin.
2020-04-29 21:01:17,932 DEBUG - onResponse, emitter: getResult_b'00000000000000000000000000000000'_4097
2020-04-29 21:01:17,933 DEBUG - receive block notify: seq: b'00000000000000000000000000000000' type:4097
2020-04-29 21:01:17,933 DEBUG - currentBlockNumber: 5
2020-04-29 21:01:17,960 DEBUG - channelHandler.ssock.recv len:8961
2020-04-29 21:01:17,961 DEBUG - total bytes to decode 8961, datalen 8961
2020-04-29 21:01:17,961 DEBUG - ChannelRecvThread:pack from node, put queue(qsize0),detail len:8961,type:0x1000,result:0x0,seq:b'83D423B88A1911EA9AB7FA163E301C29',data:b'{\n   "blockHash" : "0x25bf1e876f419fa383b5dcbde162237bdb5d2817fe70e88207c504ed236297c6",\n   "blockNumber" : "0x5",\n   "contractAddress" : "0x83592a3cf1af302612756b8687c8dc7935c0ad1d",\n   "from" : "0x95198b93705e394a916579e048c8a32ddfb900f7",\n   "gasUsed" : "0x116cb7",\n   "input" : "0x608060405260008055610bba600155610bbb600255610bbc60035534801561002657600080fd5b50610efa806100366000396000f30060806040526004361061004c576000357c0100000000000000000000000000000000000000000000000000000000900463ffffffff1680636a86a33d14610051578063ddcfd8951461022c575b600080fd5b34801561005d57600080fd5b50610216600480360381019080803590602001908201803590602001908080601f0160208091040260200160405190810160405280939291908181526020018383808284378201915050505050509192919290803590602001908201803590602001908080601f0160208091040260200160405190810160405280939291908181526020018383808284378201915050505050509192919290803590602001908201803590602001908080601f0160208091040260200160405190810160405280939291908181526020018383808284378201915050505050509192919290803590602001908201803590602001908080601f0160208091040260200160405190810160405280939291908181526020018383808284378201915050505050509192919290803590602001908201803590602001908080601f0160208091040260200160405190810160405280939291908181526020018383808284378201915050505050509192919290803590602001908201803590602001908080601f01602080910402602001604051908101604052809392919081815260200183838082843782019150505050505091929192905050506104be565b6040518082815260200191505060405180910390f35b34801561023857600080fd5b50610293600480360381019080803590602001908201803590602001908080601f0160208091040260200160405190810160405280939291908181526020018383808284378201915050505050509192919290505050610760565b60405180806020018060200180602001806020018060200186810386528b818151815260200191508051906020019080838360005b838110156102e35780820151818401526020810190506102c8565b50505050905090810190601f1680156103105780820380516001836020036101000a031916815260200191505b5086810385528a818151815260200191508051906020019080838360005b8381101561034957808201518184015260208101905061032e565b50505050905090810190601f1680156103765780820380516001836020036101000a031916815260200191505b50868103845289818151815260200191508051906020019080838360005b838110156103af578082015181840152602081019050610394565b50505050905090810190601f1680156103dc5780820380516001836020036101000a031916815260200191505b50868103835288818151815260200191508051906020019080838360005b838110156104155780820151818401526020810190506103fa565b50505050905090810190601f1680156104425780820380516001836020036101000a031916815260200191505b50868103825287818151815260200191508051906020019080838360005b8381101561047b578082015181840152602081019050610460565b50505050905090810190601f1680156104a85780820380516001836020036101000a031916815260200191505b509a505050505050505050505060405180910390f35b6000806004866040518082805190602001908083835b6020831015156104f957805182526020820191506020810190506020830392506104d4565b6001836020036101000a0380198251168184511680821785525050505050509050019150509081526020016040518091039020905060008160020180546001816001161561010002031660029004905014151561055a576002549150610755565b85816002019080519060200190610572929190610c64565b508781600001908051906020019061058b929190610ce4565b50868160010190805190602001906105a4929190610ce4565b50848160030190805190602001906105bd929190610ce4565b50838160040190805190602001906105d6929190610ce4565b50828160050190805190602001906105ef929190610ce4565b50806004876040518082805190602001908083835b6020831015156106295780518252602082019150602081019050602083039250610604565b6001836020036101000a038019825116818451168082178552505050505050905001915050908152602001604051809103902060008201816000019080546001816001161561010002031660029004610683929190610d64565b50600182018160010190805460018160011615610100020316600290046106ab929190610d64565b50600282018160020190805460018160011615610100020316600290046106d3929190610deb565b50600382018160030190805460018160011615610100020316600290046106fb929190610d64565b5060048201816004019080546001816001161561010002031660029004610723929190610d64565b506005820181600501908054600181600116156101000203166002900461074b929190610d64565b5090505060005491505b509695505050505050565b6060806060806060610770610e72565b6004876040518082805190602001908083835b6020831015156107a85780518252602082019150602081019050602083039250610783565b6001836020036101000a038019825116818451168082178552505050505050905001915050908152602001604051809103902060c06040519081016040529081600082018054600181600116156101000203166002900480601f0160208091040260200160405190810160405280929190818152602001828054600181600116156101000203166002900480156108805780601f1061085557610100808354040283529160200191610880565b820191906000526020600020905b81548152906001019060200180831161086357829003601f168201915b50505050508152602001600182018054600181600116156101000203166002900480601f0160208091040260200160405190810160405280929190818152602001828054600181600116156101000203166002900480156109225780601f106108f757610100808354040283529160200191610922565b820191906000526020600020905b81548152906001019060200180831161090557829003601f168201915b50505050508152602001600282018054600181600116156101000203166002900480601f0160208091040260200160405190810160405280929190818152602001828054600181600116156101000203166002900480156109c45780601f10610999576101008083540402835291602001916109c4565b820191906000526020600020905b8154815290600101906020018083116109a757829003601f168201915b50505050508152602001600382018054600181600116156101000203166002900480601f016020809104026020016040519081016040528092919081815260200182805460018160011615610100020316600290048015610a665780601f10610a3b57610100808354040283529160200191610a66565b820191906000526020600020905b815481529060010190602001808311610a4957829003601f168201915b50505050508152602001600482018054600181600116156101000203166002900480601f016020809104026020016040519081016040528092919081815260200182805460018160011615610100020316600290048015610b085780601f10610add57610100808354040283529160200191610b08565b820191906000526020600020905b815481529060010190602001808311610aeb57829003601f168201915b50505050508152602001600582018054600181600116156101000203166002900480601f016020809104026020016040519081016040528092919081815260200182805460018160011615610100020316600290048015610baa5780601f10610b7f57610100808354040283529160200191610baa565b820191906000526020600020905b815481529060010190602001808311610b8d57829003601f168201915b505050505081525050905060008160400151511415610c27576020604051908101604052806000815250602060405190810160405280600081525060206040519081016040528060008152506020604051908101604052806000815250602060405190810160405280600081525095509550955095509550610c5a565b80600001518160200151826060015183608001518460a00151849450839350829250819150809050955095509550955095505b5091939590929450565b828054600181600116156101000203166002900490600052602060002090601f016020900481019282601f10610ca557805160ff1916838001178555610cd3565b82800160010185558215610cd3579182015b82811115610cd2578251825591602001919060010190610cb7565b5b509050610ce09190610ea9565b5090565b828054600181600116156101000203166002900490600052602060002090601f016020900481019282601f10610d2557805160ff1916838001178555610d53565b82800160010185558215610d53579182015b82811115610d52578251825591602001919060010190610d37565b5b509050610d609190610ea9565b5090565b828054600181600116156101000203166002900490600052602060002090601f016020900481019282601f10610d9d5780548555610dda565b82800160010185558215610dda57600052602060002091601f016020900482015b82811115610dd9578254825591600101919060010190610dbe565b5b509050610de79190610ea9565b5090565b828054600181600116156101000203166002900490600052602060002090601f016020900481019282601f10610e245780548555610e61565b82800160010185558215610e6157600052602060002091601f016020900482015b82811115610e60578254825591600101919060010190610e45565b5b509050610e6e9190610ea9565b5090565b60c0604051908101604052806060815260200160608152602001606081526020016060815260200160608152602001606081525090565b610ecb91905b80821115610ec7576000816000905550600101610eaf565b5090565b905600a165627a7a72305820837643d9c21e6f6a4886d49820455dba84f519ee38704d95dd06f6586acc11bb0029",\n   "logs" : [],\n   "logsBloom" : "0x00000000000000000000000000000000000000000000000000000000000000000000000000000000000000000000000000000000000000000000000000000000000000000000000000000000000000000000000000000000000000000000000000000000000000000000000000000000000000000000000000000000000000000000000000000000000000000000000000000000000000000000000000000000000000000000000000000000000000000000000000000000000000000000000000000000000000000000000000000000000000000000000000000000000000000000000000000000000000000000000000000000000000000000000000000000",\n   "output" : "0x",\n   "root" : "0x02cb1d69361c89551183fa22fb9472a5ff5677fbc8e929f0bef544b7a0b55ec8",\n   "status" : "0x0",\n   "to" : "0x0000000000000000000000000000000000000000",\n   "transactionHash" : "0x6cd6f662d1437c28669fa36cf2c38b498d8620c8a257226e8ebeb28e179103ea",\n   "transactionIndex" : "0x0"\n}\n'
2020-04-29 21:01:17,961 DEBUG - ChannelRecvThread channelHandler.ssock.recv begin.
2020-04-29 21:01:17,961 DEBUG - onResponse, emitter: getResult_b'83D423B88A1911EA9AB7FA163E301C29'_4096
2020-04-29 21:01:17,961 DEBUG - response from server , seq: b'83D423B88A1911EA9AB7FA163E301C29', type:4096
2020-04-29 21:01:17,962 DEBUG - channelHandler.ssock.recv len:0
2020-04-29 21:01:17,962 DEBUG - channelHandler:thread finished ,keepWorking = False
2020-04-29 21:01:18,062 DEBUG - ChannelRecvThread:thread finished ,keepWorking = False
2020-04-29 21:01:18,076 DEBUG - channelSendThread:thread finished ,keepWorking = False
2020-04-29 21:02:35,259 DEBUG - connect 117.50.95.250:20200,as socket <socket.socket fd=7, family=AddressFamily.AF_INET, type=SocketKind.SOCK_STREAM, proto=6, laddr=('192.168.0.208', 56996), raddr=('117.50.95.250', 20200)>
2020-04-29 21:02:35,326 DEBUG - ChannelRecvThread:start thread-->
2020-04-29 21:02:35,326 DEBUG - ChannelRecvThread channelHandler.ssock.recv begin.
2020-04-29 21:02:35,326 DEBUG - channelSendThread:start thread-->
2020-04-29 21:02:35,326 DEBUG - channelHandler:start thread-->
2020-04-29 21:02:35,327 DEBUG - request rpc_data : b'{"jsonrpc": "2.0", "method": "getBlockNumber", "params": [1], "id": 2}'
2020-04-29 21:02:35,327 DEBUG - channelSendThread send pack len:70,type:0x12,result:0x0,seq:b'B1FE53F88A1911EABBBEFA163E301C29',data:b'{"jsonrpc": "2.0", "method": "getBlockNumber", "params": [1], "id": 2}'
2020-04-29 21:02:35,356 DEBUG - channelHandler.ssock.recv len:82
2020-04-29 21:02:35,356 DEBUG - total bytes to decode 82, datalen 164
2020-04-29 21:02:35,357 DEBUG - ChannelRecvThread:pack from node, put queue(qsize0),detail len:82,type:0x12,result:0x0,seq:b'8305B99C8A1911EA9AB7FA163E301C29',data:b'{"id":0,"jsonrpc":"2.0","result":"0x4"}\n\x00\x00\x00R\x00\x12B1FE53F88A1911EABBBEFA163E301C29\x00\x00\x00\x00{"id":2,"jsonrpc":"2.0","result":"0x5"}\n'
2020-04-29 21:02:35,357 DEBUG - total bytes to decode 82, datalen 82
2020-04-29 21:02:35,357 DEBUG - ChannelRecvThread:pack from node, put queue(qsize1),detail len:82,type:0x12,result:0x0,seq:b'B1FE53F88A1911EABBBEFA163E301C29',data:b'{"id":2,"jsonrpc":"2.0","result":"0x5"}\n'
2020-04-29 21:02:35,357 DEBUG - ChannelRecvThread channelHandler.ssock.recv begin.
2020-04-29 21:02:35,357 DEBUG - onResponse, emitter: getResult_b'B1FE53F88A1911EABBBEFA163E301C29'_18
2020-04-29 21:02:35,357 DEBUG - response from server , seq: b'B1FE53F88A1911EABBBEFA163E301C29', type:18
2020-04-29 21:02:35,357 DEBUG - block notify emitter: onResponse_b'00000000000000000000000000000000'_4097
2020-04-29 21:02:35,357 INFO - using protocol channel
2020-04-29 21:02:35,368 DEBUG - channelSendThread send pack len:19,type:0x32,result:0x0,seq:b'B202FC148A1911EABBBEFA163E301C29',data:["_block_notify_1"]
2020-04-29 21:02:36,648 DEBUG - request rpc_data : b'{"jsonrpc": "2.0", "method": "sendRawTransaction", "params": [1, "0xf902b584359bc6768401c9c3808401c9c3808201f99483592a3cf1af302612756b8687c8dc7935c0ad1d80b902446a86a33d00000000000000000000000000000000000000000000000000000000000000c000000000000000000000000000000000000000000000000000000000000001000000000000000000000000000000000000000000000000000000000000000140000000000000000000000000000000000000000000000000000000000000018000000000000000000000000000000000000000000000000000000000000001c0000000000000000000000000000000000000000000000000000000000000020000000000000000000000000000000000000000000000000000000000000000086c6964756e77656900000000000000000000000000000000000000000000000000000000000000000000000000000000000000000000000000000000000000086c6964756e77656900000000000000000000000000000000000000000000000000000000000000000000000000000000000000000000000000000000000000086c6964756e77656900000000000000000000000000000000000000000000000000000000000000000000000000000000000000000000000000000000000000086c6964756e77656900000000000000000000000000000000000000000000000000000000000000000000000000000000000000000000000000000000000000086c6964756e77656900000000000000000000000000000000000000000000000000000000000000000000000000000000000000000000000000000000000000086c6964756e7765690000000000000000000000000000000000000000000000000101801ca08889d306908fab2128564b28fd4382aa2d504a3c01eb646af4676efd7da5fc3ca066106e55ad2ed0b339b0a86945d6e45ed84091e95bb0e5d41dcbf5646f8a558e"], "id": 3}'
2020-04-29 21:02:36,649 DEBUG - channelSendThread send pack len:1472,type:0x12,result:0x0,seq:b'B2C806448A1911EABBBEFA163E301C29',data:b'{"jsonrpc": "2.0", "method": "sendRawTransaction", "params": [1, "0xf902b584359bc6768401c9c3808401c9c3808201f99483592a3cf1af302612756b8687c8dc7935c0ad1d80b902446a86a33d00000000000000000000000000000000000000000000000000000000000000c000000000000000000000000000000000000000000000000000000000000001000000000000000000000000000000000000000000000000000000000000000140000000000000000000000000000000000000000000000000000000000000018000000000000000000000000000000000000000000000000000000000000001c0000000000000000000000000000000000000000000000000000000000000020000000000000000000000000000000000000000000000000000000000000000086c6964756e77656900000000000000000000000000000000000000000000000000000000000000000000000000000000000000000000000000000000000000086c6964756e77656900000000000000000000000000000000000000000000000000000000000000000000000000000000000000000000000000000000000000086c6964756e77656900000000000000000000000000000000000000000000000000000000000000000000000000000000000000000000000000000000000000086c6964756e77656900000000000000000000000000000000000000000000000000000000000000000000000000000000000000000000000000000000000000086c6964756e77656900000000000000000000000000000000000000000000000000000000000000000000000000000000000000000000000000000000000000086c6964756e7765690000000000000000000000000000000000000000000000000101801ca08889d306908fab2128564b28fd4382aa2d504a3c01eb646af4676efd7da5fc3ca066106e55ad2ed0b339b0a86945d6e45ed84091e95bb0e5d41dcbf5646f8a558e"], "id": 3}'
2020-04-29 21:02:36,680 DEBUG - channelHandler.ssock.recv len:145
2020-04-29 21:02:36,680 DEBUG - total bytes to decode 145, datalen 145
2020-04-29 21:02:36,680 DEBUG - ChannelRecvThread:pack from node, put queue(qsize0),detail len:145,type:0x12,result:0x0,seq:b'B2C806448A1911EABBBEFA163E301C29',data:b'{"id":3,"jsonrpc":"2.0","result":"0xc4c5ff8d412800b65ec67af75671054959c791e634313395246d36fa132c363f"}\n'
2020-04-29 21:02:36,680 DEBUG - ChannelRecvThread channelHandler.ssock.recv begin.
2020-04-29 21:02:36,681 DEBUG - onResponse, emitter: getResult_b'B2C806448A1911EABBBEFA163E301C29'_18
2020-04-29 21:02:36,681 DEBUG - response from server , seq: b'B2C806448A1911EABBBEFA163E301C29', type:18
2020-04-29 21:02:37,126 DEBUG - channelHandler.ssock.recv len:61
2020-04-29 21:02:37,126 DEBUG - total bytes to decode 61, datalen 61
2020-04-29 21:02:37,126 DEBUG - ChannelRecvThread:pack from node, put queue(qsize0),detail len:61,type:0x1001,result:0x0,seq:b'00000000000000000000000000000000',data:b'\x10_block_notify_11,6'
2020-04-29 21:02:37,126 DEBUG - ChannelRecvThread channelHandler.ssock.recv begin.
2020-04-29 21:02:37,127 DEBUG - onResponse, emitter: getResult_b'00000000000000000000000000000000'_4097
2020-04-29 21:02:37,127 DEBUG - receive block notify: seq: b'00000000000000000000000000000000' type:4097
2020-04-29 21:02:37,127 DEBUG - currentBlockNumber: 6
2020-04-29 21:02:37,155 DEBUG - channelHandler.ssock.recv len:2408
2020-04-29 21:02:37,155 DEBUG - total bytes to decode 2408, datalen 2408
2020-04-29 21:02:37,155 DEBUG - ChannelRecvThread:pack from node, put queue(qsize0),detail len:2408,type:0x1000,result:0x0,seq:b'B2C806448A1911EABBBEFA163E301C29',data:b'{\n   "blockHash" : "0x507f68fc6b133cb07dea2e949ef5ec8f2e45392589ee477d39a5cd184ef164bf",\n   "blockNumber" : "0x6",\n   "contractAddress" : "0x0000000000000000000000000000000000000000",\n   "from" : "0x95198b93705e394a916579e048c8a32ddfb900f7",\n   "gasUsed" : "0x3598d",\n   "input" : "0x6a86a33d00000000000000000000000000000000000000000000000000000000000000c000000000000000000000000000000000000000000000000000000000000001000000000000000000000000000000000000000000000000000000000000000140000000000000000000000000000000000000000000000000000000000000018000000000000000000000000000000000000000000000000000000000000001c0000000000000000000000000000000000000000000000000000000000000020000000000000000000000000000000000000000000000000000000000000000086c6964756e77656900000000000000000000000000000000000000000000000000000000000000000000000000000000000000000000000000000000000000086c6964756e77656900000000000000000000000000000000000000000000000000000000000000000000000000000000000000000000000000000000000000086c6964756e77656900000000000000000000000000000000000000000000000000000000000000000000000000000000000000000000000000000000000000086c6964756e77656900000000000000000000000000000000000000000000000000000000000000000000000000000000000000000000000000000000000000086c6964756e77656900000000000000000000000000000000000000000000000000000000000000000000000000000000000000000000000000000000000000086c6964756e776569000000000000000000000000000000000000000000000000",\n   "logs" : [],\n   "logsBloom" : "0x00000000000000000000000000000000000000000000000000000000000000000000000000000000000000000000000000000000000000000000000000000000000000000000000000000000000000000000000000000000000000000000000000000000000000000000000000000000000000000000000000000000000000000000000000000000000000000000000000000000000000000000000000000000000000000000000000000000000000000000000000000000000000000000000000000000000000000000000000000000000000000000000000000000000000000000000000000000000000000000000000000000000000000000000000000000",\n   "output" : "0x0000000000000000000000000000000000000000000000000000000000000000",\n   "root" : "0xbc1ac3a816955f5604eb71426dd9bc4449579a9751c43d2ef6a18e2109f07988",\n   "status" : "0x0",\n   "to" : "0x83592a3cf1af302612756b8687c8dc7935c0ad1d",\n   "transactionHash" : "0xc4c5ff8d412800b65ec67af75671054959c791e634313395246d36fa132c363f",\n   "transactionIndex" : "0x0"\n}\n'
2020-04-29 21:02:37,155 DEBUG - ChannelRecvThread channelHandler.ssock.recv begin.
2020-04-29 21:02:37,155 DEBUG - onResponse, emitter: getResult_b'B2C806448A1911EABBBEFA163E301C29'_4096
2020-04-29 21:02:37,155 DEBUG - response from server , seq: b'B2C806448A1911EABBBEFA163E301C29', type:4096
2020-04-29 21:02:37,156 DEBUG - request rpc_data : b'{"jsonrpc": "2.0", "method": "getTransactionByHash", "params": [1, "0xc4c5ff8d412800b65ec67af75671054959c791e634313395246d36fa132c363f"], "id": 4}'
2020-04-29 21:02:37,156 DEBUG - channelSendThread send pack len:146,type:0x12,result:0x0,seq:b'B315712C8A1911EABBBEFA163E301C29',data:b'{"jsonrpc": "2.0", "method": "getTransactionByHash", "params": [1, "0xc4c5ff8d412800b65ec67af75671054959c791e634313395246d36fa132c363f"], "id": 4}'
2020-04-29 21:02:37,186 DEBUG - channelHandler.ssock.recv len:1631
2020-04-29 21:02:37,186 DEBUG - total bytes to decode 1631, datalen 1631
2020-04-29 21:02:37,186 DEBUG - ChannelRecvThread:pack from node, put queue(qsize0),detail len:1631,type:0x12,result:0x0,seq:b'B315712C8A1911EABBBEFA163E301C29',data:b'{"id":4,"jsonrpc":"2.0","result":{"blockHash":"0x507f68fc6b133cb07dea2e949ef5ec8f2e45392589ee477d39a5cd184ef164bf","blockNumber":"0x6","from":"0x95198b93705e394a916579e048c8a32ddfb900f7","gas":"0x1c9c380","gasPrice":"0x1c9c380","hash":"0xc4c5ff8d412800b65ec67af75671054959c791e634313395246d36fa132c363f","input":"0x6a86a33d00000000000000000000000000000000000000000000000000000000000000c000000000000000000000000000000000000000000000000000000000000001000000000000000000000000000000000000000000000000000000000000000140000000000000000000000000000000000000000000000000000000000000018000000000000000000000000000000000000000000000000000000000000001c0000000000000000000000000000000000000000000000000000000000000020000000000000000000000000000000000000000000000000000000000000000086c6964756e77656900000000000000000000000000000000000000000000000000000000000000000000000000000000000000000000000000000000000000086c6964756e77656900000000000000000000000000000000000000000000000000000000000000000000000000000000000000000000000000000000000000086c6964756e77656900000000000000000000000000000000000000000000000000000000000000000000000000000000000000000000000000000000000000086c6964756e77656900000000000000000000000000000000000000000000000000000000000000000000000000000000000000000000000000000000000000086c6964756e77656900000000000000000000000000000000000000000000000000000000000000000000000000000000000000000000000000000000000000086c6964756e776569000000000000000000000000000000000000000000000000","nonce":"0x359bc676","to":"0x83592a3cf1af302612756b8687c8dc7935c0ad1d","transactionIndex":"0x0","value":"0x0"}}\n'
2020-04-29 21:02:37,187 DEBUG - ChannelRecvThread channelHandler.ssock.recv begin.
2020-04-29 21:02:37,187 DEBUG - onResponse, emitter: getResult_b'B315712C8A1911EABBBEFA163E301C29'_18
2020-04-29 21:02:37,187 DEBUG - response from server , seq: b'B315712C8A1911EABBBEFA163E301C29', type:18
2020-04-29 21:02:37,188 DEBUG - channelHandler.ssock.recv len:0
2020-04-29 21:02:37,188 DEBUG - channelHandler:thread finished ,keepWorking = False
2020-04-29 21:02:37,288 DEBUG - ChannelRecvThread:thread finished ,keepWorking = False
2020-04-29 21:02:37,356 DEBUG - channelSendThread:thread finished ,keepWorking = False
