2020-03-28 14:07:37,248 DEBUG - connect 129.211.27.73:20200,as socket <socket.socket fd=7, family=AddressFamily.AF_INET, type=SocketKind.SOCK_STREAM, proto=6, laddr=('192.168.0.208', 47162), raddr=('129.211.27.73', 20200)>
2020-03-28 14:07:37,378 DEBUG - ChannelRecvThread:start thread-->
2020-03-28 14:07:37,378 DEBUG - ChannelRecvThread channelHandler.ssock.recv begin.
2020-03-28 14:07:37,378 DEBUG - channelSendThread:start thread-->
2020-03-28 14:07:37,378 DEBUG - channelHandler:start thread-->
2020-03-28 14:07:37,378 DEBUG - request rpc_data : b'{"jsonrpc": "2.0", "method": "getBlockNumber", "params": [1], "id": 0}'
2020-03-28 14:07:37,379 DEBUG - channelSendThread send pack len:70,type:0x12,result:0x0,seq:b'6C70F3C270BA11EA9593FA163E301C29',data:b'{"jsonrpc": "2.0", "method": "getBlockNumber", "params": [1], "id": 0}'
2020-03-28 14:07:37,397 DEBUG - channelHandler.ssock.recv len:83
2020-03-28 14:07:37,397 DEBUG - total bytes to decode 83, datalen 83
2020-03-28 14:07:37,397 DEBUG - ChannelRecvThread:pack from node, put queue(qsize0),detail len:83,type:0x12,result:0x0,seq:b'6C70F3C270BA11EA9593FA163E301C29',data:b'{"id":0,"jsonrpc":"2.0","result":"0x36"}\n'
2020-03-28 14:07:37,397 DEBUG - ChannelRecvThread channelHandler.ssock.recv begin.
2020-03-28 14:07:37,397 DEBUG - onResponse, emitter: getResult_b'6C70F3C270BA11EA9593FA163E301C29'_18
2020-03-28 14:07:37,398 DEBUG - response from server , seq: b'6C70F3C270BA11EA9593FA163E301C29', type:18
2020-03-28 14:07:37,398 DEBUG - block notify emitter: onResponse_b'00000000000000000000000000000000'_4097
2020-03-28 14:07:37,398 INFO - using protocol channel
2020-03-28 14:07:37,409 DEBUG - channelSendThread send pack len:19,type:0x32,result:0x0,seq:b'6C73E9D870BA11EA9593FA163E301C29',data:["_block_notify_1"]
2020-03-28 14:07:38,658 DEBUG - request rpc_data : b'{"jsonrpc": "2.0", "method": "sendRawTransaction", "params": [1, "0xf902b584116b7e3f8401c9c3808401c9c38082022a94f805cc0fdaece77cb724a36dd66047758b47c99d80b902446a86a33d00000000000000000000000000000000000000000000000000000000000000c000000000000000000000000000000000000000000000000000000000000001000000000000000000000000000000000000000000000000000000000000000140000000000000000000000000000000000000000000000000000000000000018000000000000000000000000000000000000000000000000000000000000001c000000000000000000000000000000000000000000000000000000000000002000000000000000000000000000000000000000000000000000000000000000002317900000000000000000000000000000000000000000000000000000000000000000000000000000000000000000000000000000000000000000000000000023179000000000000000000000000000000000000000000000000000000000000000000000000000000000000000000000000000000000000000000000000000231790000000000000000000000000000000000000000000000000000000000000000000000000000000000000000000000000000000000000000000000000002317900000000000000000000000000000000000000000000000000000000000000000000000000000000000000000000000000000000000000000000000000023179000000000000000000000000000000000000000000000000000000000000000000000000000000000000000000000000000000000000000000000000000231790000000000000000000000000000000000000000000000000000000000000101801ba02df1b8e9fdf66fe3a9e056fbd42dcfa3c78024f351fa4640bddd9d4a1d29d8e8a04466c6a4562cb17d89d31413372da61f4a0b8be9ec93d10e54385e8e96e2ab3b"], "id": 1}'
2020-03-28 14:07:38,659 DEBUG - channelSendThread send pack len:1472,type:0x12,result:0x0,seq:b'6D34375670BA11EA9593FA163E301C29',data:b'{"jsonrpc": "2.0", "method": "sendRawTransaction", "params": [1, "0xf902b584116b7e3f8401c9c3808401c9c38082022a94f805cc0fdaece77cb724a36dd66047758b47c99d80b902446a86a33d00000000000000000000000000000000000000000000000000000000000000c000000000000000000000000000000000000000000000000000000000000001000000000000000000000000000000000000000000000000000000000000000140000000000000000000000000000000000000000000000000000000000000018000000000000000000000000000000000000000000000000000000000000001c000000000000000000000000000000000000000000000000000000000000002000000000000000000000000000000000000000000000000000000000000000002317900000000000000000000000000000000000000000000000000000000000000000000000000000000000000000000000000000000000000000000000000023179000000000000000000000000000000000000000000000000000000000000000000000000000000000000000000000000000000000000000000000000000231790000000000000000000000000000000000000000000000000000000000000000000000000000000000000000000000000000000000000000000000000002317900000000000000000000000000000000000000000000000000000000000000000000000000000000000000000000000000000000000000000000000000023179000000000000000000000000000000000000000000000000000000000000000000000000000000000000000000000000000000000000000000000000000231790000000000000000000000000000000000000000000000000000000000000101801ba02df1b8e9fdf66fe3a9e056fbd42dcfa3c78024f351fa4640bddd9d4a1d29d8e8a04466c6a4562cb17d89d31413372da61f4a0b8be9ec93d10e54385e8e96e2ab3b"], "id": 1}'
2020-03-28 14:07:38,684 DEBUG - channelHandler.ssock.recv len:145
2020-03-28 14:07:38,684 DEBUG - total bytes to decode 145, datalen 145
2020-03-28 14:07:38,684 DEBUG - ChannelRecvThread:pack from node, put queue(qsize0),detail len:145,type:0x12,result:0x0,seq:b'6D34375670BA11EA9593FA163E301C29',data:b'{"id":1,"jsonrpc":"2.0","result":"0x2f1e2a04d201563ab158a650b01a9b0c7b416f1315d1566b8f49f25d062cd926"}\n'
2020-03-28 14:07:38,684 DEBUG - ChannelRecvThread channelHandler.ssock.recv begin.
2020-03-28 14:07:38,684 DEBUG - onResponse, emitter: getResult_b'6D34375670BA11EA9593FA163E301C29'_18
2020-03-28 14:07:38,684 DEBUG - response from server , seq: b'6D34375670BA11EA9593FA163E301C29', type:18
2020-03-28 14:07:38,734 DEBUG - channelHandler.ssock.recv len:62
2020-03-28 14:07:38,734 DEBUG - total bytes to decode 62, datalen 62
2020-03-28 14:07:38,734 DEBUG - ChannelRecvThread:pack from node, put queue(qsize0),detail len:62,type:0x1001,result:0x0,seq:b'00000000000000000000000000000000',data:b'\x10_block_notify_11,55'
2020-03-28 14:07:38,734 DEBUG - ChannelRecvThread channelHandler.ssock.recv begin.
2020-03-28 14:07:38,734 DEBUG - onResponse, emitter: getResult_b'00000000000000000000000000000000'_4097
2020-03-28 14:07:38,734 DEBUG - receive block notify: seq: b'00000000000000000000000000000000' type:4097
2020-03-28 14:07:38,734 DEBUG - currentBlockNumber: 55
2020-03-28 14:07:38,740 DEBUG - channelHandler.ssock.recv len:2409
2020-03-28 14:07:38,740 DEBUG - total bytes to decode 2409, datalen 2409
2020-03-28 14:07:38,740 DEBUG - ChannelRecvThread:pack from node, put queue(qsize0),detail len:2409,type:0x1000,result:0x0,seq:b'6D34375670BA11EA9593FA163E301C29',data:b'{\n   "blockHash" : "0x61282ec3e5dd7010eef3e4507edd656212ee80ba2e23a032dc3a7ea3e6d69eac",\n   "blockNumber" : "0x37",\n   "contractAddress" : "0x0000000000000000000000000000000000000000",\n   "from" : "0x95198b93705e394a916579e048c8a32ddfb900f7",\n   "gasUsed" : "0x3508d",\n   "input" : "0x6a86a33d00000000000000000000000000000000000000000000000000000000000000c000000000000000000000000000000000000000000000000000000000000001000000000000000000000000000000000000000000000000000000000000000140000000000000000000000000000000000000000000000000000000000000018000000000000000000000000000000000000000000000000000000000000001c00000000000000000000000000000000000000000000000000000000000000200000000000000000000000000000000000000000000000000000000000000000231790000000000000000000000000000000000000000000000000000000000000000000000000000000000000000000000000000000000000000000000000002317900000000000000000000000000000000000000000000000000000000000000000000000000000000000000000000000000000000000000000000000000023179000000000000000000000000000000000000000000000000000000000000000000000000000000000000000000000000000000000000000000000000000231790000000000000000000000000000000000000000000000000000000000000000000000000000000000000000000000000000000000000000000000000002317900000000000000000000000000000000000000000000000000000000000000000000000000000000000000000000000000000000000000000000000000023179000000000000000000000000000000000000000000000000000000000000",\n   "logs" : [],\n   "logsBloom" : "0x00000000000000000000000000000000000000000000000000000000000000000000000000000000000000000000000000000000000000000000000000000000000000000000000000000000000000000000000000000000000000000000000000000000000000000000000000000000000000000000000000000000000000000000000000000000000000000000000000000000000000000000000000000000000000000000000000000000000000000000000000000000000000000000000000000000000000000000000000000000000000000000000000000000000000000000000000000000000000000000000000000000000000000000000000000000",\n   "output" : "0x0000000000000000000000000000000000000000000000000000000000000000",\n   "root" : "0x482dc49639d38ddb336b85e7f35584093b2ec32041fd5c0d69abde33f1890c53",\n   "status" : "0x0",\n   "to" : "0xf805cc0fdaece77cb724a36dd66047758b47c99d",\n   "transactionHash" : "0x2f1e2a04d201563ab158a650b01a9b0c7b416f1315d1566b8f49f25d062cd926",\n   "transactionIndex" : "0x0"\n}\n'
2020-03-28 14:07:38,740 DEBUG - ChannelRecvThread channelHandler.ssock.recv begin.
2020-03-28 14:07:38,741 DEBUG - onResponse, emitter: getResult_b'6D34375670BA11EA9593FA163E301C29'_4096
2020-03-28 14:07:38,741 DEBUG - response from server , seq: b'6D34375670BA11EA9593FA163E301C29', type:4096
2020-03-28 14:07:38,741 DEBUG - request rpc_data : b'{"jsonrpc": "2.0", "method": "getTransactionByHash", "params": [1, "0x2f1e2a04d201563ab158a650b01a9b0c7b416f1315d1566b8f49f25d062cd926"], "id": 2}'
2020-03-28 14:07:38,741 DEBUG - channelSendThread send pack len:146,type:0x12,result:0x0,seq:b'6D40E0E670BA11EA9593FA163E301C29',data:b'{"jsonrpc": "2.0", "method": "getTransactionByHash", "params": [1, "0x2f1e2a04d201563ab158a650b01a9b0c7b416f1315d1566b8f49f25d062cd926"], "id": 2}'
2020-03-28 14:07:38,748 DEBUG - channelHandler.ssock.recv len:81
2020-03-28 14:07:38,748 DEBUG - total bytes to decode 81, datalen 81
2020-03-28 14:07:38,749 DEBUG - ChannelRecvThread:pack from node, put queue(qsize0),detail len:81,type:0x12,result:0x0,seq:b'6D40E0E670BA11EA9593FA163E301C29',data:b'{"id":2,"jsonrpc":"2.0","result":null}\n'
2020-03-28 14:07:38,749 DEBUG - ChannelRecvThread channelHandler.ssock.recv begin.
2020-03-28 14:07:38,749 DEBUG - onResponse, emitter: getResult_b'6D40E0E670BA11EA9593FA163E301C29'_18
2020-03-28 14:07:38,749 DEBUG - response from server , seq: b'6D40E0E670BA11EA9593FA163E301C29', type:18
2020-03-28 14:07:38,750 DEBUG - channelHandler.ssock.recv len:0
2020-03-28 14:07:38,750 DEBUG - channelHandler:thread finished ,keepWorking = False
2020-03-28 14:07:38,850 DEBUG - ChannelRecvThread:thread finished ,keepWorking = False
2020-03-28 14:07:38,942 DEBUG - channelSendThread:thread finished ,keepWorking = False
2020-03-28 14:07:58,781 DEBUG - connect 129.211.27.73:20200,as socket <socket.socket fd=7, family=AddressFamily.AF_INET, type=SocketKind.SOCK_STREAM, proto=6, laddr=('192.168.0.208', 47168), raddr=('129.211.27.73', 20200)>
2020-03-28 14:07:58,805 DEBUG - ChannelRecvThread:start thread-->
2020-03-28 14:07:58,805 DEBUG - ChannelRecvThread channelHandler.ssock.recv begin.
2020-03-28 14:07:58,805 DEBUG - channelSendThread:start thread-->
2020-03-28 14:07:58,805 DEBUG - channelHandler:start thread-->
2020-03-28 14:07:58,805 DEBUG - request rpc_data : b'{"jsonrpc": "2.0", "method": "getBlockNumber", "params": [1], "id": 3}'
2020-03-28 14:07:58,805 DEBUG - channelSendThread send pack len:70,type:0x12,result:0x0,seq:b'7936672270BA11EABDB3FA163E301C29',data:b'{"jsonrpc": "2.0", "method": "getBlockNumber", "params": [1], "id": 3}'
2020-03-28 14:07:58,813 DEBUG - channelHandler.ssock.recv len:83
2020-03-28 14:07:58,813 DEBUG - total bytes to decode 83, datalen 166
2020-03-28 14:07:58,813 DEBUG - ChannelRecvThread:pack from node, put queue(qsize0),detail len:83,type:0x12,result:0x0,seq:b'6C70F3C270BA11EA9593FA163E301C29',data:b'{"id":0,"jsonrpc":"2.0","result":"0x36"}\n\x00\x00\x00S\x00\x127936672270BA11EABDB3FA163E301C29\x00\x00\x00\x00{"id":3,"jsonrpc":"2.0","result":"0x37"}\n'
2020-03-28 14:07:58,813 DEBUG - total bytes to decode 83, datalen 83
2020-03-28 14:07:58,813 DEBUG - ChannelRecvThread:pack from node, put queue(qsize1),detail len:83,type:0x12,result:0x0,seq:b'7936672270BA11EABDB3FA163E301C29',data:b'{"id":3,"jsonrpc":"2.0","result":"0x37"}\n'
2020-03-28 14:07:58,814 DEBUG - ChannelRecvThread channelHandler.ssock.recv begin.
2020-03-28 14:07:58,814 DEBUG - onResponse, emitter: getResult_b'7936672270BA11EABDB3FA163E301C29'_18
2020-03-28 14:07:58,814 DEBUG - response from server , seq: b'7936672270BA11EABDB3FA163E301C29', type:18
2020-03-28 14:07:58,814 DEBUG - block notify emitter: onResponse_b'00000000000000000000000000000000'_4097
2020-03-28 14:07:58,814 INFO - using protocol channel
2020-03-28 14:07:58,824 DEBUG - channelSendThread send pack len:19,type:0x32,result:0x0,seq:b'7937B87070BA11EABDB3FA163E301C29',data:["_block_notify_1"]
2020-03-28 14:08:00,075 DEBUG - request rpc_data : b'{"jsonrpc": "2.0", "method": "sendRawTransaction", "params": [1, "0xf902f584291023278401c9c3808401c9c38082022b94f805cc0fdaece77cb724a36dd66047758b47c99d80b902846a86a33d00000000000000000000000000000000000000000000000000000000000000c000000000000000000000000000000000000000000000000000000000000001000000000000000000000000000000000000000000000000000000000000000140000000000000000000000000000000000000000000000000000000000000018000000000000000000000000000000000000000000000000000000000000001c0000000000000000000000000000000000000000000000000000000000000024000000000000000000000000000000000000000000000000000000000000000086c6964756e7765690000000000000000000000000000000000000000000000000000000000000000000000000000000000000000000000000000000000000003717765000000000000000000000000000000000000000000000000000000000000000000000000000000000000000000000000000000000000000000000000087368616e6768616900000000000000000000000000000000000000000000000000000000000000000000000000000000000000000000000000000000000000086c6964756e7765690000000000000000000000000000000000000000000000000000000000000000000000000000000000000000000000000000000000000052526f6f6d203232312c20546563686e6963616c2043656e746572204275696c64696e672c2031353838204c69616e68616920526f61642c204d696e68616e672044697374726963742c205368616e67686169000000000000000000000000000000000000000000000000000000000000000000000000000000000000000000086c6964756e7765690000000000000000000000000000000000000000000000000101801ba02097784f4d4eac25f6cb78caa22e03f6c48ca8781e54a39f15fbba50334c79b1a00edf93f2632a09cf5ed5ae87f5447cf5c6225ca2cdcce6112e32828f46205c90"], "id": 4}'
2020-03-28 14:08:00,075 DEBUG - channelSendThread send pack len:1600,type:0x12,result:0x0,seq:b'79F81E9E70BA11EABDB3FA163E301C29',data:b'{"jsonrpc": "2.0", "method": "sendRawTransaction", "params": [1, "0xf902f584291023278401c9c3808401c9c38082022b94f805cc0fdaece77cb724a36dd66047758b47c99d80b902846a86a33d00000000000000000000000000000000000000000000000000000000000000c000000000000000000000000000000000000000000000000000000000000001000000000000000000000000000000000000000000000000000000000000000140000000000000000000000000000000000000000000000000000000000000018000000000000000000000000000000000000000000000000000000000000001c0000000000000000000000000000000000000000000000000000000000000024000000000000000000000000000000000000000000000000000000000000000086c6964756e7765690000000000000000000000000000000000000000000000000000000000000000000000000000000000000000000000000000000000000003717765000000000000000000000000000000000000000000000000000000000000000000000000000000000000000000000000000000000000000000000000087368616e6768616900000000000000000000000000000000000000000000000000000000000000000000000000000000000000000000000000000000000000086c6964756e7765690000000000000000000000000000000000000000000000000000000000000000000000000000000000000000000000000000000000000052526f6f6d203232312c20546563686e6963616c2043656e746572204275696c64696e672c2031353838204c69616e68616920526f61642c204d696e68616e672044697374726963742c205368616e67686169000000000000000000000000000000000000000000000000000000000000000000000000000000000000000000086c6964756e7765690000000000000000000000000000000000000000000000000101801ba02097784f4d4eac25f6cb78caa22e03f6c48ca8781e54a39f15fbba50334c79b1a00edf93f2632a09cf5ed5ae87f5447cf5c6225ca2cdcce6112e32828f46205c90"], "id": 4}'
2020-03-28 14:08:00,084 DEBUG - channelHandler.ssock.recv len:145
2020-03-28 14:08:00,084 DEBUG - total bytes to decode 145, datalen 145
2020-03-28 14:08:00,084 DEBUG - ChannelRecvThread:pack from node, put queue(qsize0),detail len:145,type:0x12,result:0x0,seq:b'79F81E9E70BA11EABDB3FA163E301C29',data:b'{"id":4,"jsonrpc":"2.0","result":"0x892e65a355d03759b11a848af84bdc09ae6afdfbac0403dd4a75315906d01ecb"}\n'
2020-03-28 14:08:00,084 DEBUG - ChannelRecvThread channelHandler.ssock.recv begin.
2020-03-28 14:08:00,085 DEBUG - onResponse, emitter: getResult_b'79F81E9E70BA11EABDB3FA163E301C29'_18
2020-03-28 14:08:00,085 DEBUG - response from server , seq: b'79F81E9E70BA11EABDB3FA163E301C29', type:18
2020-03-28 14:08:00,458 DEBUG - channelHandler.ssock.recv len:62
2020-03-28 14:08:00,458 DEBUG - total bytes to decode 62, datalen 62
2020-03-28 14:08:00,458 DEBUG - ChannelRecvThread:pack from node, put queue(qsize0),detail len:62,type:0x1001,result:0x0,seq:b'00000000000000000000000000000000',data:b'\x10_block_notify_11,56'
2020-03-28 14:08:00,458 DEBUG - ChannelRecvThread channelHandler.ssock.recv begin.
2020-03-28 14:08:00,459 DEBUG - onResponse, emitter: getResult_b'00000000000000000000000000000000'_4097
2020-03-28 14:08:00,459 DEBUG - receive block notify: seq: b'00000000000000000000000000000000' type:4097
2020-03-28 14:08:00,459 DEBUG - currentBlockNumber: 56
2020-03-28 14:08:00,465 DEBUG - channelHandler.ssock.recv len:2537
2020-03-28 14:08:00,466 DEBUG - total bytes to decode 2537, datalen 2537
2020-03-28 14:08:00,466 DEBUG - ChannelRecvThread:pack from node, put queue(qsize0),detail len:2537,type:0x1000,result:0x0,seq:b'79F81E9E70BA11EABDB3FA163E301C29',data:b'{\n   "blockHash" : "0x315b6b8502d811157d1d6bfe8c428576cbdca6827733cad9b2e28fdb776bb05f",\n   "blockNumber" : "0x38",\n   "contractAddress" : "0x0000000000000000000000000000000000000000",\n   "from" : "0x95198b93705e394a916579e048c8a32ddfb900f7",\n   "gasUsed" : "0x48116",\n   "input" : "0x6a86a33d00000000000000000000000000000000000000000000000000000000000000c000000000000000000000000000000000000000000000000000000000000001000000000000000000000000000000000000000000000000000000000000000140000000000000000000000000000000000000000000000000000000000000018000000000000000000000000000000000000000000000000000000000000001c0000000000000000000000000000000000000000000000000000000000000024000000000000000000000000000000000000000000000000000000000000000086c6964756e7765690000000000000000000000000000000000000000000000000000000000000000000000000000000000000000000000000000000000000003717765000000000000000000000000000000000000000000000000000000000000000000000000000000000000000000000000000000000000000000000000087368616e6768616900000000000000000000000000000000000000000000000000000000000000000000000000000000000000000000000000000000000000086c6964756e7765690000000000000000000000000000000000000000000000000000000000000000000000000000000000000000000000000000000000000052526f6f6d203232312c20546563686e6963616c2043656e746572204275696c64696e672c2031353838204c69616e68616920526f61642c204d696e68616e672044697374726963742c205368616e67686169000000000000000000000000000000000000000000000000000000000000000000000000000000000000000000086c6964756e776569000000000000000000000000000000000000000000000000",\n   "logs" : [],\n   "logsBloom" : "0x00000000000000000000000000000000000000000000000000000000000000000000000000000000000000000000000000000000000000000000000000000000000000000000000000000000000000000000000000000000000000000000000000000000000000000000000000000000000000000000000000000000000000000000000000000000000000000000000000000000000000000000000000000000000000000000000000000000000000000000000000000000000000000000000000000000000000000000000000000000000000000000000000000000000000000000000000000000000000000000000000000000000000000000000000000000",\n   "output" : "0x0000000000000000000000000000000000000000000000000000000000000000",\n   "root" : "0x6d80410095f185e5e5397e3ce5c22219b9f3b245d31e46c417a2079a0004a599",\n   "status" : "0x0",\n   "to" : "0xf805cc0fdaece77cb724a36dd66047758b47c99d",\n   "transactionHash" : "0x892e65a355d03759b11a848af84bdc09ae6afdfbac0403dd4a75315906d01ecb",\n   "transactionIndex" : "0x0"\n}\n'
2020-03-28 14:08:00,466 DEBUG - ChannelRecvThread channelHandler.ssock.recv begin.
2020-03-28 14:08:00,466 DEBUG - onResponse, emitter: getResult_b'79F81E9E70BA11EABDB3FA163E301C29'_4096
2020-03-28 14:08:00,466 DEBUG - response from server , seq: b'79F81E9E70BA11EABDB3FA163E301C29', type:4096
2020-03-28 14:08:00,467 DEBUG - request rpc_data : b'{"jsonrpc": "2.0", "method": "getTransactionByHash", "params": [1, "0x892e65a355d03759b11a848af84bdc09ae6afdfbac0403dd4a75315906d01ecb"], "id": 5}'
2020-03-28 14:08:00,467 DEBUG - channelSendThread send pack len:146,type:0x12,result:0x0,seq:b'7A33E4CE70BA11EABDB3FA163E301C29',data:b'{"jsonrpc": "2.0", "method": "getTransactionByHash", "params": [1, "0x892e65a355d03759b11a848af84bdc09ae6afdfbac0403dd4a75315906d01ecb"], "id": 5}'
2020-03-28 14:08:00,475 DEBUG - channelHandler.ssock.recv len:1760
2020-03-28 14:08:00,475 DEBUG - total bytes to decode 1760, datalen 1760
2020-03-28 14:08:00,475 DEBUG - ChannelRecvThread:pack from node, put queue(qsize0),detail len:1760,type:0x12,result:0x0,seq:b'7A33E4CE70BA11EABDB3FA163E301C29',data:b'{"id":5,"jsonrpc":"2.0","result":{"blockHash":"0x315b6b8502d811157d1d6bfe8c428576cbdca6827733cad9b2e28fdb776bb05f","blockNumber":"0x38","from":"0x95198b93705e394a916579e048c8a32ddfb900f7","gas":"0x1c9c380","gasPrice":"0x1c9c380","hash":"0x892e65a355d03759b11a848af84bdc09ae6afdfbac0403dd4a75315906d01ecb","input":"0x6a86a33d00000000000000000000000000000000000000000000000000000000000000c000000000000000000000000000000000000000000000000000000000000001000000000000000000000000000000000000000000000000000000000000000140000000000000000000000000000000000000000000000000000000000000018000000000000000000000000000000000000000000000000000000000000001c0000000000000000000000000000000000000000000000000000000000000024000000000000000000000000000000000000000000000000000000000000000086c6964756e7765690000000000000000000000000000000000000000000000000000000000000000000000000000000000000000000000000000000000000003717765000000000000000000000000000000000000000000000000000000000000000000000000000000000000000000000000000000000000000000000000087368616e6768616900000000000000000000000000000000000000000000000000000000000000000000000000000000000000000000000000000000000000086c6964756e7765690000000000000000000000000000000000000000000000000000000000000000000000000000000000000000000000000000000000000052526f6f6d203232312c20546563686e6963616c2043656e746572204275696c64696e672c2031353838204c69616e68616920526f61642c204d696e68616e672044697374726963742c205368616e67686169000000000000000000000000000000000000000000000000000000000000000000000000000000000000000000086c6964756e776569000000000000000000000000000000000000000000000000","nonce":"0x29102327","to":"0xf805cc0fdaece77cb724a36dd66047758b47c99d","transactionIndex":"0x0","value":"0x0"}}\n'
2020-03-28 14:08:00,475 DEBUG - ChannelRecvThread channelHandler.ssock.recv begin.
2020-03-28 14:08:00,475 DEBUG - onResponse, emitter: getResult_b'7A33E4CE70BA11EABDB3FA163E301C29'_18
2020-03-28 14:08:00,475 DEBUG - response from server , seq: b'7A33E4CE70BA11EABDB3FA163E301C29', type:18
2020-03-28 14:08:00,476 DEBUG - channelHandler.ssock.recv len:0
2020-03-28 14:08:00,476 DEBUG - channelHandler:thread finished ,keepWorking = False
2020-03-28 14:08:00,576 DEBUG - ChannelRecvThread:thread finished ,keepWorking = False
2020-03-28 14:08:00,667 DEBUG - channelSendThread:thread finished ,keepWorking = False
2020-03-28 14:08:39,932 DEBUG - connect 129.211.27.73:20200,as socket <socket.socket fd=7, family=AddressFamily.AF_INET, type=SocketKind.SOCK_STREAM, proto=6, laddr=('192.168.0.208', 47176), raddr=('129.211.27.73', 20200)>
2020-03-28 14:08:39,952 DEBUG - ChannelRecvThread:start thread-->
2020-03-28 14:08:39,952 DEBUG - ChannelRecvThread channelHandler.ssock.recv begin.
2020-03-28 14:08:39,952 DEBUG - channelSendThread:start thread-->
2020-03-28 14:08:39,952 DEBUG - channelHandler:start thread-->
2020-03-28 14:08:39,952 DEBUG - request rpc_data : b'{"jsonrpc": "2.0", "method": "getBlockNumber", "params": [1], "id": 6}'
2020-03-28 14:08:39,952 DEBUG - channelSendThread send pack len:70,type:0x12,result:0x0,seq:b'91BCF10870BA11EA93C5FA163E301C29',data:b'{"jsonrpc": "2.0", "method": "getBlockNumber", "params": [1], "id": 6}'
2020-03-28 14:08:39,959 DEBUG - channelHandler.ssock.recv len:83
2020-03-28 14:08:39,959 DEBUG - total bytes to decode 83, datalen 249
2020-03-28 14:08:39,959 DEBUG - ChannelRecvThread:pack from node, put queue(qsize0),detail len:83,type:0x12,result:0x0,seq:b'6C70F3C270BA11EA9593FA163E301C29',data:b'{"id":0,"jsonrpc":"2.0","result":"0x36"}\n\x00\x00\x00S\x00\x127936672270BA11EABDB3FA163E301C29\x00\x00\x00\x00{"id":3,"jsonrpc":"2.0","result":"0x37"}\n\x00\x00\x00S\x00\x1291BCF10870BA11EA93C5FA163E301C29\x00\x00\x00\x00{"id":6,"jsonrpc":"2.0","result":"0x38"}\n'
2020-03-28 14:08:39,959 DEBUG - total bytes to decode 83, datalen 166
2020-03-28 14:08:39,959 DEBUG - ChannelRecvThread:pack from node, put queue(qsize1),detail len:83,type:0x12,result:0x0,seq:b'7936672270BA11EABDB3FA163E301C29',data:b'{"id":3,"jsonrpc":"2.0","result":"0x37"}\n\x00\x00\x00S\x00\x1291BCF10870BA11EA93C5FA163E301C29\x00\x00\x00\x00{"id":6,"jsonrpc":"2.0","result":"0x38"}\n'
2020-03-28 14:08:39,959 DEBUG - total bytes to decode 83, datalen 83
2020-03-28 14:08:39,959 DEBUG - ChannelRecvThread:pack from node, put queue(qsize2),detail len:83,type:0x12,result:0x0,seq:b'91BCF10870BA11EA93C5FA163E301C29',data:b'{"id":6,"jsonrpc":"2.0","result":"0x38"}\n'
2020-03-28 14:08:39,959 DEBUG - ChannelRecvThread channelHandler.ssock.recv begin.
2020-03-28 14:08:39,959 DEBUG - onResponse, emitter: getResult_b'91BCF10870BA11EA93C5FA163E301C29'_18
2020-03-28 14:08:39,959 DEBUG - response from server , seq: b'91BCF10870BA11EA93C5FA163E301C29', type:18
2020-03-28 14:08:39,959 DEBUG - block notify emitter: onResponse_b'00000000000000000000000000000000'_4097
2020-03-28 14:08:39,959 INFO - using protocol channel
2020-03-28 14:08:39,970 DEBUG - channelSendThread send pack len:19,type:0x32,result:0x0,seq:b'91BE048070BA11EA93C5FA163E301C29',data:["_block_notify_1"]
2020-03-28 14:08:41,220 DEBUG - request rpc_data : b'{"jsonrpc": "2.0", "method": "sendRawTransaction", "params": [1, "0xf8d4842c5e84938401c9c3808401c9c38082022c94f805cc0fdaece77cb724a36dd66047758b47c99d80b864ddcfd895000000000000000000000000000000000000000000000000000000000000002000000000000000000000000000000000000000000000000000000000000000086c6964756e7765690000000000000000000000000000000000000000000000000101801ca0b7ae2ba37b4e97ee78f1aed6c3f0f1c53c88b1323b293fb10dc498fc6a75a0fca07945a8927dc0a6bcae0ac062a9374e1c5737c63d761f565523b2f2354d38dec4"], "id": 7}'
2020-03-28 14:08:41,220 DEBUG - channelSendThread send pack len:508,type:0x12,result:0x0,seq:b'927E65CC70BA11EA93C5FA163E301C29',data:b'{"jsonrpc": "2.0", "method": "sendRawTransaction", "params": [1, "0xf8d4842c5e84938401c9c3808401c9c38082022c94f805cc0fdaece77cb724a36dd66047758b47c99d80b864ddcfd895000000000000000000000000000000000000000000000000000000000000002000000000000000000000000000000000000000000000000000000000000000086c6964756e7765690000000000000000000000000000000000000000000000000101801ca0b7ae2ba37b4e97ee78f1aed6c3f0f1c53c88b1323b293fb10dc498fc6a75a0fca07945a8927dc0a6bcae0ac062a9374e1c5737c63d761f565523b2f2354d38dec4"], "id": 7}'
2020-03-28 14:08:41,228 DEBUG - channelHandler.ssock.recv len:145
2020-03-28 14:08:41,228 DEBUG - total bytes to decode 145, datalen 145
2020-03-28 14:08:41,228 DEBUG - ChannelRecvThread:pack from node, put queue(qsize0),detail len:145,type:0x12,result:0x0,seq:b'927E65CC70BA11EA93C5FA163E301C29',data:b'{"id":7,"jsonrpc":"2.0","result":"0x4f4655fadd69a31609e855682596e0a53d9b517197e8d2c3844f2b65f988646c"}\n'
2020-03-28 14:08:41,228 DEBUG - ChannelRecvThread channelHandler.ssock.recv begin.
2020-03-28 14:08:41,229 DEBUG - onResponse, emitter: getResult_b'927E65CC70BA11EA93C5FA163E301C29'_18
2020-03-28 14:08:41,229 DEBUG - response from server , seq: b'927E65CC70BA11EA93C5FA163E301C29', type:18
2020-03-28 14:08:41,292 DEBUG - channelHandler.ssock.recv len:62
2020-03-28 14:08:41,292 DEBUG - total bytes to decode 62, datalen 62
2020-03-28 14:08:41,292 DEBUG - ChannelRecvThread:pack from node, put queue(qsize0),detail len:62,type:0x1001,result:0x0,seq:b'00000000000000000000000000000000',data:b'\x10_block_notify_11,57'
2020-03-28 14:08:41,292 DEBUG - ChannelRecvThread channelHandler.ssock.recv begin.
2020-03-28 14:08:41,293 DEBUG - onResponse, emitter: getResult_b'00000000000000000000000000000000'_4097
2020-03-28 14:08:41,293 DEBUG - receive block notify: seq: b'00000000000000000000000000000000' type:4097
2020-03-28 14:08:41,293 DEBUG - currentBlockNumber: 57
2020-03-28 14:08:41,298 DEBUG - channelHandler.ssock.recv len:2344
2020-03-28 14:08:41,298 DEBUG - total bytes to decode 2344, datalen 2344
2020-03-28 14:08:41,298 DEBUG - ChannelRecvThread:pack from node, put queue(qsize0),detail len:2344,type:0x1000,result:0x0,seq:b'927E65CC70BA11EA93C5FA163E301C29',data:b'{\n   "blockHash" : "0xaefdda2cff346d9ac540a952361aa8061edb68b3853eaea69799f40f95f14b82",\n   "blockNumber" : "0x39",\n   "contractAddress" : "0x0000000000000000000000000000000000000000",\n   "from" : "0x95198b93705e394a916579e048c8a32ddfb900f7",\n   "gasUsed" : "0x77b1",\n   "input" : "0xddcfd895000000000000000000000000000000000000000000000000000000000000002000000000000000000000000000000000000000000000000000000000000000086c6964756e776569000000000000000000000000000000000000000000000000",\n   "logs" : [],\n   "logsBloom" : "0x00000000000000000000000000000000000000000000000000000000000000000000000000000000000000000000000000000000000000000000000000000000000000000000000000000000000000000000000000000000000000000000000000000000000000000000000000000000000000000000000000000000000000000000000000000000000000000000000000000000000000000000000000000000000000000000000000000000000000000000000000000000000000000000000000000000000000000000000000000000000000000000000000000000000000000000000000000000000000000000000000000000000000000000000000000000",\n   "output" : "0x00000000000000000000000000000000000000000000000000000000000000a000000000000000000000000000000000000000000000000000000000000000e00000000000000000000000000000000000000000000000000000000000000120000000000000000000000000000000000000000000000000000000000000016000000000000000000000000000000000000000000000000000000000000001a000000000000000000000000000000000000000000000000000000000000000086c6964756e77656900000000000000000000000000000000000000000000000000000000000000000000000000000000000000000000000000000000000000086c6964756e77656900000000000000000000000000000000000000000000000000000000000000000000000000000000000000000000000000000000000000086c6964756e7765690000000000000000000000000000000000000000000000000000000000000000000000000000000000000000000000000000000000000005313131313100000000000000000000000000000000000000000000000000000000000000000000000000000000000000000000000000000000000000000000043131313100000000000000000000000000000000000000000000000000000000",\n   "root" : "0x2ea9ab9198d1638007400cd2c3bef1cc745b864b76011a0e1bc52180ac6452d4",\n   "status" : "0x0",\n   "to" : "0xf805cc0fdaece77cb724a36dd66047758b47c99d",\n   "transactionHash" : "0x4f4655fadd69a31609e855682596e0a53d9b517197e8d2c3844f2b65f988646c",\n   "transactionIndex" : "0x0"\n}\n'
2020-03-28 14:08:41,298 DEBUG - ChannelRecvThread channelHandler.ssock.recv begin.
2020-03-28 14:08:41,298 DEBUG - onResponse, emitter: getResult_b'927E65CC70BA11EA93C5FA163E301C29'_4096
2020-03-28 14:08:41,298 DEBUG - response from server , seq: b'927E65CC70BA11EA93C5FA163E301C29', type:4096
2020-03-28 14:08:41,299 DEBUG - request rpc_data : b'{"jsonrpc": "2.0", "method": "getTransactionByHash", "params": [1, "0x4f4655fadd69a31609e855682596e0a53d9b517197e8d2c3844f2b65f988646c"], "id": 8}'
2020-03-28 14:08:41,299 DEBUG - channelSendThread send pack len:146,type:0x12,result:0x0,seq:b'928A602070BA11EA93C5FA163E301C29',data:b'{"jsonrpc": "2.0", "method": "getTransactionByHash", "params": [1, "0x4f4655fadd69a31609e855682596e0a53d9b517197e8d2c3844f2b65f988646c"], "id": 8}'
2020-03-28 14:08:41,305 DEBUG - channelHandler.ssock.recv len:672
2020-03-28 14:08:41,305 DEBUG - total bytes to decode 672, datalen 672
2020-03-28 14:08:41,305 DEBUG - ChannelRecvThread:pack from node, put queue(qsize0),detail len:672,type:0x12,result:0x0,seq:b'928A602070BA11EA93C5FA163E301C29',data:b'{"id":8,"jsonrpc":"2.0","result":{"blockHash":"0xaefdda2cff346d9ac540a952361aa8061edb68b3853eaea69799f40f95f14b82","blockNumber":"0x39","from":"0x95198b93705e394a916579e048c8a32ddfb900f7","gas":"0x1c9c380","gasPrice":"0x1c9c380","hash":"0x4f4655fadd69a31609e855682596e0a53d9b517197e8d2c3844f2b65f988646c","input":"0xddcfd895000000000000000000000000000000000000000000000000000000000000002000000000000000000000000000000000000000000000000000000000000000086c6964756e776569000000000000000000000000000000000000000000000000","nonce":"0x2c5e8493","to":"0xf805cc0fdaece77cb724a36dd66047758b47c99d","transactionIndex":"0x0","value":"0x0"}}\n'
2020-03-28 14:08:41,305 DEBUG - ChannelRecvThread channelHandler.ssock.recv begin.
2020-03-28 14:08:41,306 DEBUG - onResponse, emitter: getResult_b'928A602070BA11EA93C5FA163E301C29'_18
2020-03-28 14:08:41,306 DEBUG - response from server , seq: b'928A602070BA11EA93C5FA163E301C29', type:18
2020-03-28 14:08:41,307 DEBUG - channelHandler.ssock.recv len:0
2020-03-28 14:08:41,307 DEBUG - channelHandler:thread finished ,keepWorking = False
2020-03-28 14:08:41,407 DEBUG - ChannelRecvThread:thread finished ,keepWorking = False
2020-03-28 14:08:41,499 DEBUG - channelSendThread:thread finished ,keepWorking = False
2020-03-28 14:16:45,601 DEBUG - connect 129.211.27.73:20200,as socket <socket.socket fd=7, family=AddressFamily.AF_INET, type=SocketKind.SOCK_STREAM, proto=6, laddr=('192.168.0.208', 47182), raddr=('129.211.27.73', 20200)>
2020-03-28 14:16:45,623 DEBUG - ChannelRecvThread:start thread-->
2020-03-28 14:16:45,623 DEBUG - ChannelRecvThread channelHandler.ssock.recv begin.
2020-03-28 14:16:45,623 DEBUG - channelSendThread:start thread-->
2020-03-28 14:16:45,623 DEBUG - channelHandler:start thread-->
2020-03-28 14:16:45,623 DEBUG - request rpc_data : b'{"jsonrpc": "2.0", "method": "getBlockNumber", "params": [1], "id": 9}'
2020-03-28 14:16:45,624 DEBUG - channelSendThread send pack len:70,type:0x12,result:0x0,seq:b'B338767670BB11EAA2ADFA163E301C29',data:b'{"jsonrpc": "2.0", "method": "getBlockNumber", "params": [1], "id": 9}'
2020-03-28 14:16:45,631 DEBUG - channelHandler.ssock.recv len:83
2020-03-28 14:16:45,631 DEBUG - total bytes to decode 83, datalen 332
2020-03-28 14:16:45,631 DEBUG - ChannelRecvThread:pack from node, put queue(qsize0),detail len:83,type:0x12,result:0x0,seq:b'6C70F3C270BA11EA9593FA163E301C29',data:b'{"id":0,"jsonrpc":"2.0","result":"0x36"}\n\x00\x00\x00S\x00\x127936672270BA11EABDB3FA163E301C29\x00\x00\x00\x00{"id":3,"jsonrpc":"2.0","result":"0x37"}\n\x00\x00\x00S\x00\x1291BCF10870BA11EA93C5FA163E301C29\x00\x00\x00\x00{"id":6,"jsonrpc":"2.0","result":"0x38"}\n\x00\x00\x00S\x00\x12B338767670BB11EAA2ADFA163E301C29\x00\x00\x00\x00{"id":9,"jsonrpc":"2.0","result":"0x39"}\n'
2020-03-28 14:16:45,631 DEBUG - total bytes to decode 83, datalen 249
2020-03-28 14:16:45,631 DEBUG - ChannelRecvThread:pack from node, put queue(qsize1),detail len:83,type:0x12,result:0x0,seq:b'7936672270BA11EABDB3FA163E301C29',data:b'{"id":3,"jsonrpc":"2.0","result":"0x37"}\n\x00\x00\x00S\x00\x1291BCF10870BA11EA93C5FA163E301C29\x00\x00\x00\x00{"id":6,"jsonrpc":"2.0","result":"0x38"}\n\x00\x00\x00S\x00\x12B338767670BB11EAA2ADFA163E301C29\x00\x00\x00\x00{"id":9,"jsonrpc":"2.0","result":"0x39"}\n'
2020-03-28 14:16:45,631 DEBUG - total bytes to decode 83, datalen 166
2020-03-28 14:16:45,631 DEBUG - ChannelRecvThread:pack from node, put queue(qsize2),detail len:83,type:0x12,result:0x0,seq:b'91BCF10870BA11EA93C5FA163E301C29',data:b'{"id":6,"jsonrpc":"2.0","result":"0x38"}\n\x00\x00\x00S\x00\x12B338767670BB11EAA2ADFA163E301C29\x00\x00\x00\x00{"id":9,"jsonrpc":"2.0","result":"0x39"}\n'
2020-03-28 14:16:45,631 DEBUG - total bytes to decode 83, datalen 83
2020-03-28 14:16:45,631 DEBUG - ChannelRecvThread:pack from node, put queue(qsize3),detail len:83,type:0x12,result:0x0,seq:b'B338767670BB11EAA2ADFA163E301C29',data:b'{"id":9,"jsonrpc":"2.0","result":"0x39"}\n'
2020-03-28 14:16:45,631 DEBUG - ChannelRecvThread channelHandler.ssock.recv begin.
2020-03-28 14:16:45,632 DEBUG - onResponse, emitter: getResult_b'B338767670BB11EAA2ADFA163E301C29'_18
2020-03-28 14:16:45,632 DEBUG - response from server , seq: b'B338767670BB11EAA2ADFA163E301C29', type:18
2020-03-28 14:16:45,632 DEBUG - block notify emitter: onResponse_b'00000000000000000000000000000000'_4097
2020-03-28 14:16:45,632 INFO - using protocol channel
2020-03-28 14:16:45,643 DEBUG - channelSendThread send pack len:19,type:0x32,result:0x0,seq:b'B339CEEA70BB11EAA2ADFA163E301C29',data:["_block_notify_1"]
2020-03-28 14:16:46,907 DEBUG - request rpc_data : b'{"jsonrpc": "2.0", "method": "sendRawTransaction", "params": [1, "0xf902b584245d4b048401c9c3808401c9c38082022d94f805cc0fdaece77cb724a36dd66047758b47c99d80b902446a86a33d00000000000000000000000000000000000000000000000000000000000000c000000000000000000000000000000000000000000000000000000000000001000000000000000000000000000000000000000000000000000000000000000140000000000000000000000000000000000000000000000000000000000000018000000000000000000000000000000000000000000000000000000000000001c000000000000000000000000000000000000000000000000000000000000002000000000000000000000000000000000000000000000000000000000000000003717764000000000000000000000000000000000000000000000000000000000000000000000000000000000000000000000000000000000000000000000000037177640000000000000000000000000000000000000000000000000000000000000000000000000000000000000000000000000000000000000000000000000371776400000000000000000000000000000000000000000000000000000000000000000000000000000000000000000000000000000000000000000000000003717764000000000000000000000000000000000000000000000000000000000000000000000000000000000000000000000000000000000000000000000000037177640000000000000000000000000000000000000000000000000000000000000000000000000000000000000000000000000000000000000000000000000371776400000000000000000000000000000000000000000000000000000000000101801ca0e77d512d63e1ca1b0c59523e580e182c4971396e4aecd19424409d96407c96d2a06e57674a50cc8d1e0e5e25fac624b29683795ebd1a6d4c969b83395bb436a5cc"], "id": 10}'
2020-03-28 14:16:46,907 DEBUG - channelSendThread send pack len:1473,type:0x12,result:0x0,seq:b'B3FC4B6E70BB11EAA2ADFA163E301C29',data:b'{"jsonrpc": "2.0", "method": "sendRawTransaction", "params": [1, "0xf902b584245d4b048401c9c3808401c9c38082022d94f805cc0fdaece77cb724a36dd66047758b47c99d80b902446a86a33d00000000000000000000000000000000000000000000000000000000000000c000000000000000000000000000000000000000000000000000000000000001000000000000000000000000000000000000000000000000000000000000000140000000000000000000000000000000000000000000000000000000000000018000000000000000000000000000000000000000000000000000000000000001c000000000000000000000000000000000000000000000000000000000000002000000000000000000000000000000000000000000000000000000000000000003717764000000000000000000000000000000000000000000000000000000000000000000000000000000000000000000000000000000000000000000000000037177640000000000000000000000000000000000000000000000000000000000000000000000000000000000000000000000000000000000000000000000000371776400000000000000000000000000000000000000000000000000000000000000000000000000000000000000000000000000000000000000000000000003717764000000000000000000000000000000000000000000000000000000000000000000000000000000000000000000000000000000000000000000000000037177640000000000000000000000000000000000000000000000000000000000000000000000000000000000000000000000000000000000000000000000000371776400000000000000000000000000000000000000000000000000000000000101801ca0e77d512d63e1ca1b0c59523e580e182c4971396e4aecd19424409d96407c96d2a06e57674a50cc8d1e0e5e25fac624b29683795ebd1a6d4c969b83395bb436a5cc"], "id": 10}'
2020-03-28 14:16:46,915 DEBUG - channelHandler.ssock.recv len:146
2020-03-28 14:16:46,915 DEBUG - total bytes to decode 146, datalen 146
2020-03-28 14:16:46,915 DEBUG - ChannelRecvThread:pack from node, put queue(qsize0),detail len:146,type:0x12,result:0x0,seq:b'B3FC4B6E70BB11EAA2ADFA163E301C29',data:b'{"id":10,"jsonrpc":"2.0","result":"0xf4e93d1618137827217932f9f0d4a995e0c7f440d5f33cd76266f2d0c7db6365"}\n'
2020-03-28 14:16:46,915 DEBUG - ChannelRecvThread channelHandler.ssock.recv begin.
2020-03-28 14:16:46,915 DEBUG - onResponse, emitter: getResult_b'B3FC4B6E70BB11EAA2ADFA163E301C29'_18
2020-03-28 14:16:46,916 DEBUG - response from server , seq: b'B3FC4B6E70BB11EAA2ADFA163E301C29', type:18
2020-03-28 14:16:47,407 DEBUG - channelHandler.ssock.recv len:62
2020-03-28 14:16:47,407 DEBUG - total bytes to decode 62, datalen 62
2020-03-28 14:16:47,407 DEBUG - ChannelRecvThread:pack from node, put queue(qsize0),detail len:62,type:0x1001,result:0x0,seq:b'00000000000000000000000000000000',data:b'\x10_block_notify_11,58'
2020-03-28 14:16:47,407 DEBUG - ChannelRecvThread channelHandler.ssock.recv begin.
2020-03-28 14:16:47,408 DEBUG - onResponse, emitter: getResult_b'00000000000000000000000000000000'_4097
2020-03-28 14:16:47,408 DEBUG - receive block notify: seq: b'00000000000000000000000000000000' type:4097
2020-03-28 14:16:47,408 DEBUG - currentBlockNumber: 58
2020-03-28 14:16:47,414 DEBUG - channelHandler.ssock.recv len:2409
2020-03-28 14:16:47,414 DEBUG - total bytes to decode 2409, datalen 2409
2020-03-28 14:16:47,414 DEBUG - ChannelRecvThread:pack from node, put queue(qsize0),detail len:2409,type:0x1000,result:0x0,seq:b'B3FC4B6E70BB11EAA2ADFA163E301C29',data:b'{\n   "blockHash" : "0xf256c56e1feb2bacb8bf064fe39eb14f1a399fe74d80801b8a735418f2c1902b",\n   "blockNumber" : "0x3a",\n   "contractAddress" : "0x0000000000000000000000000000000000000000",\n   "from" : "0x95198b93705e394a916579e048c8a32ddfb900f7",\n   "gasUsed" : "0x3520d",\n   "input" : "0x6a86a33d00000000000000000000000000000000000000000000000000000000000000c000000000000000000000000000000000000000000000000000000000000001000000000000000000000000000000000000000000000000000000000000000140000000000000000000000000000000000000000000000000000000000000018000000000000000000000000000000000000000000000000000000000000001c00000000000000000000000000000000000000000000000000000000000000200000000000000000000000000000000000000000000000000000000000000000371776400000000000000000000000000000000000000000000000000000000000000000000000000000000000000000000000000000000000000000000000003717764000000000000000000000000000000000000000000000000000000000000000000000000000000000000000000000000000000000000000000000000037177640000000000000000000000000000000000000000000000000000000000000000000000000000000000000000000000000000000000000000000000000371776400000000000000000000000000000000000000000000000000000000000000000000000000000000000000000000000000000000000000000000000003717764000000000000000000000000000000000000000000000000000000000000000000000000000000000000000000000000000000000000000000000000037177640000000000000000000000000000000000000000000000000000000000",\n   "logs" : [],\n   "logsBloom" : "0x00000000000000000000000000000000000000000000000000000000000000000000000000000000000000000000000000000000000000000000000000000000000000000000000000000000000000000000000000000000000000000000000000000000000000000000000000000000000000000000000000000000000000000000000000000000000000000000000000000000000000000000000000000000000000000000000000000000000000000000000000000000000000000000000000000000000000000000000000000000000000000000000000000000000000000000000000000000000000000000000000000000000000000000000000000000",\n   "output" : "0x0000000000000000000000000000000000000000000000000000000000000000",\n   "root" : "0x8f99894ade36e0df387a83d30962057987f0e568464c224e68d95a88ae23b3eb",\n   "status" : "0x0",\n   "to" : "0xf805cc0fdaece77cb724a36dd66047758b47c99d",\n   "transactionHash" : "0xf4e93d1618137827217932f9f0d4a995e0c7f440d5f33cd76266f2d0c7db6365",\n   "transactionIndex" : "0x0"\n}\n'
2020-03-28 14:16:47,414 DEBUG - ChannelRecvThread channelHandler.ssock.recv begin.
2020-03-28 14:16:47,414 DEBUG - onResponse, emitter: getResult_b'B3FC4B6E70BB11EAA2ADFA163E301C29'_4096
2020-03-28 14:16:47,415 DEBUG - response from server , seq: b'B3FC4B6E70BB11EAA2ADFA163E301C29', type:4096
2020-03-28 14:16:47,415 DEBUG - request rpc_data : b'{"jsonrpc": "2.0", "method": "getTransactionByHash", "params": [1, "0xf4e93d1618137827217932f9f0d4a995e0c7f440d5f33cd76266f2d0c7db6365"], "id": 11}'
2020-03-28 14:16:47,415 DEBUG - channelSendThread send pack len:147,type:0x12,result:0x0,seq:b'B449D41A70BB11EAA2ADFA163E301C29',data:b'{"jsonrpc": "2.0", "method": "getTransactionByHash", "params": [1, "0xf4e93d1618137827217932f9f0d4a995e0c7f440d5f33cd76266f2d0c7db6365"], "id": 11}'
2020-03-28 14:16:47,423 DEBUG - channelHandler.ssock.recv len:1633
2020-03-28 14:16:47,423 DEBUG - total bytes to decode 1633, datalen 1633
2020-03-28 14:16:47,423 DEBUG - ChannelRecvThread:pack from node, put queue(qsize0),detail len:1633,type:0x12,result:0x0,seq:b'B449D41A70BB11EAA2ADFA163E301C29',data:b'{"id":11,"jsonrpc":"2.0","result":{"blockHash":"0xf256c56e1feb2bacb8bf064fe39eb14f1a399fe74d80801b8a735418f2c1902b","blockNumber":"0x3a","from":"0x95198b93705e394a916579e048c8a32ddfb900f7","gas":"0x1c9c380","gasPrice":"0x1c9c380","hash":"0xf4e93d1618137827217932f9f0d4a995e0c7f440d5f33cd76266f2d0c7db6365","input":"0x6a86a33d00000000000000000000000000000000000000000000000000000000000000c000000000000000000000000000000000000000000000000000000000000001000000000000000000000000000000000000000000000000000000000000000140000000000000000000000000000000000000000000000000000000000000018000000000000000000000000000000000000000000000000000000000000001c00000000000000000000000000000000000000000000000000000000000000200000000000000000000000000000000000000000000000000000000000000000371776400000000000000000000000000000000000000000000000000000000000000000000000000000000000000000000000000000000000000000000000003717764000000000000000000000000000000000000000000000000000000000000000000000000000000000000000000000000000000000000000000000000037177640000000000000000000000000000000000000000000000000000000000000000000000000000000000000000000000000000000000000000000000000371776400000000000000000000000000000000000000000000000000000000000000000000000000000000000000000000000000000000000000000000000003717764000000000000000000000000000000000000000000000000000000000000000000000000000000000000000000000000000000000000000000000000037177640000000000000000000000000000000000000000000000000000000000","nonce":"0x245d4b04","to":"0xf805cc0fdaece77cb724a36dd66047758b47c99d","transactionIndex":"0x0","value":"0x0"}}\n'
2020-03-28 14:16:47,423 DEBUG - ChannelRecvThread channelHandler.ssock.recv begin.
2020-03-28 14:16:47,423 DEBUG - onResponse, emitter: getResult_b'B449D41A70BB11EAA2ADFA163E301C29'_18
2020-03-28 14:16:47,423 DEBUG - response from server , seq: b'B449D41A70BB11EAA2ADFA163E301C29', type:18
2020-03-28 14:16:47,424 DEBUG - channelHandler.ssock.recv len:0
2020-03-28 14:16:47,424 DEBUG - channelHandler:thread finished ,keepWorking = False
2020-03-28 14:16:47,524 DEBUG - ChannelRecvThread:thread finished ,keepWorking = False
2020-03-28 14:16:47,615 DEBUG - channelSendThread:thread finished ,keepWorking = False
